{"contracts/CarbonMarketplace.sol":{"CarbonMarketplace":{"abi":[{"inputs":[{"internalType":"address","name":"_carbonCredit","type":"address"},{"internalType":"address","name":"_usdcToken","type":"address"}],"stateMutability":"nonpayable","type":"constructor"},{"inputs":[{"internalType":"address","name":"owner","type":"address"}],"name":"OwnableInvalidOwner","type":"error"},{"inputs":[{"internalType":"address","name":"account","type":"address"}],"name":"OwnableUnauthorizedAccount","type":"error"},{"anonymous":false,"inputs":[{"indexed":false,"internalType":"uint256","name":"listingId","type":"uint256"},{"indexed":false,"internalType":"uint256","name":"tokenId","type":"uint256"},{"indexed":false,"internalType":"address","name":"seller","type":"address"},{"indexed":false,"internalType":"uint256","name":"amount","type":"uint256"},{"indexed":false,"internalType":"uint256","name":"price","type":"uint256"}],"name":"Listed","type":"event"},{"anonymous":false,"inputs":[{"indexed":true,"internalType":"address","name":"previousOwner","type":"address"},{"indexed":true,"internalType":"address","name":"newOwner","type":"address"}],"name":"OwnershipTransferred","type":"event"},{"anonymous":false,"inputs":[{"indexed":false,"internalType":"uint256","name":"listingId","type":"uint256"},{"indexed":false,"internalType":"address","name":"seller","type":"address"},{"indexed":false,"internalType":"address","name":"buyer","type":"address"},{"indexed":false,"internalType":"uint256","name":"amount","type":"uint256"},{"indexed":false,"internalType":"uint256","name":"price","type":"uint256"}],"name":"Sold","type":"event"},{"anonymous":false,"inputs":[{"indexed":false,"internalType":"uint256","name":"listingId","type":"uint256"}],"name":"Unlisted","type":"event"},{"inputs":[{"internalType":"uint256","name":"listingId","type":"uint256"}],"name":"cancelListing","outputs":[],"stateMutability":"nonpayable","type":"function"},{"inputs":[],"name":"carbonCredit","outputs":[{"internalType":"contract CarbonCredit","name":"","type":"address"}],"stateMutability":"view","type":"function"},{"inputs":[{"internalType":"uint256","name":"tokenId","type":"uint256"},{"internalType":"uint256","name":"quantity","type":"uint256"},{"internalType":"uint256","name":"price","type":"uint256"}],"name":"createListing","outputs":[],"stateMutability":"nonpayable","type":"function"},{"inputs":[{"internalType":"uint256","name":"","type":"uint256"}],"name":"listings","outputs":[{"internalType":"uint256","name":"tokenId","type":"uint256"},{"internalType":"address","name":"seller","type":"address"},{"internalType":"uint256","name":"quantity","type":"uint256"},{"internalType":"uint256","name":"price","type":"uint256"},{"internalType":"bool","name":"active","type":"bool"}],"stateMutability":"view","type":"function"},{"inputs":[{"internalType":"address","name":"","type":"address"},{"internalType":"address","name":"","type":"address"},{"internalType":"uint256[]","name":"","type":"uint256[]"},{"internalType":"uint256[]","name":"","type":"uint256[]"},{"internalType":"bytes","name":"","type":"bytes"}],"name":"onERC1155BatchReceived","outputs":[{"internalType":"bytes4","name":"","type":"bytes4"}],"stateMutability":"nonpayable","type":"function"},{"inputs":[{"internalType":"address","name":"","type":"address"},{"internalType":"address","name":"","type":"address"},{"internalType":"uint256","name":"","type":"uint256"},{"internalType":"uint256","name":"","type":"uint256"},{"internalType":"bytes","name":"","type":"bytes"}],"name":"onERC1155Received","outputs":[{"internalType":"bytes4","name":"","type":"bytes4"}],"stateMutability":"nonpayable","type":"function"},{"inputs":[],"name":"owner","outputs":[{"internalType":"address","name":"","type":"address"}],"stateMutability":"view","type":"function"},{"inputs":[{"internalType":"uint256","name":"listingId","type":"uint256"},{"internalType":"uint256","name":"quantity","type":"uint256"}],"name":"purchase","outputs":[],"stateMutability":"nonpayable","type":"function"},{"inputs":[],"name":"renounceOwnership","outputs":[],"stateMutability":"nonpayable","type":"function"},{"inputs":[{"internalType":"bytes4","name":"interfaceId","type":"bytes4"}],"name":"supportsInterface","outputs":[{"internalType":"bool","name":"","type":"bool"}],"stateMutability":"view","type":"function"},{"inputs":[{"internalType":"address","name":"newOwner","type":"address"}],"name":"transferOwnership","outputs":[],"stateMutability":"nonpayable","type":"function"},{"inputs":[],"name":"usdcToken","outputs":[{"internalType":"contract IERC20","name":"","type":"address"}],"stateMutability":"view","type":"function"}],"evm":{"bytecode":{"linkReferences":{},"object":"608060405234801561001057600080fd5b50604051611fe3380380611fe383398181016040528101906100329190610265565b33600073ffffffffffffffffffffffffffffffffffffffff168173ffffffffffffffffffffffffffffffffffffffff16036100a55760006040517f1e4fbdf700000000000000000000000000000000000000000000000000000000815260040161009c91906102b4565b60405180910390fd5b6100b48161013e60201b60201c565b5081600260006101000a81548173ffffffffffffffffffffffffffffffffffffffff021916908373ffffffffffffffffffffffffffffffffffffffff16021790555080600360006101000a81548173ffffffffffffffffffffffffffffffffffffffff021916908373ffffffffffffffffffffffffffffffffffffffff16021790555050506102cf565b60008060009054906101000a900473ffffffffffffffffffffffffffffffffffffffff169050816000806101000a81548173ffffffffffffffffffffffffffffffffffffffff021916908373ffffffffffffffffffffffffffffffffffffffff1602179055508173ffffffffffffffffffffffffffffffffffffffff168173ffffffffffffffffffffffffffffffffffffffff167f8be0079c531659141344cd1fd0a4f28419497f9722a3daafe3b4186f6b6457e060405160405180910390a35050565b600080fd5b600073ffffffffffffffffffffffffffffffffffffffff82169050919050565b600061023282610207565b9050919050565b61024281610227565b811461024d57600080fd5b50565b60008151905061025f81610239565b92915050565b6000806040838503121561027c5761027b610202565b5b600061028a85828601610250565b925050602061029b85828601610250565b9150509250929050565b6102ae81610227565b82525050565b60006020820190506102c960008301846102a5565b92915050565b611d05806102de6000396000f3fe608060405234801561001057600080fd5b50600436106100b45760003560e01c80638da5cb5b116100715780638da5cb5b14610167578063b03053b614610185578063bc197c81146101a1578063de74e57b146101d1578063f23a6e6114610205578063f2fde38b14610235576100b4565b806301ffc9a7146100b957806311eac855146100e9578063305a67a814610107578063637bf7951461012357806370876c9814610141578063715018a61461015d575b600080fd5b6100d360048036038101906100ce9190611011565b610251565b6040516100e09190611059565b60405180910390f35b6100f16102cb565b6040516100fe91906110f3565b60405180910390f35b610121600480360381019061011c9190611144565b6102f1565b005b61012b610502565b6040516101389190611192565b60405180910390f35b61015b600480360381019061015691906111ad565b610528565b005b61016561090e565b005b61016f610922565b60405161017c919061120e565b60405180910390f35b61019f600480360381019061019a9190611229565b61094b565b005b6101bb60048036038101906101b691906114b6565b610cd5565b6040516101c89190611594565b60405180910390f35b6101eb60048036038101906101e69190611144565b610cea565b6040516101fc9594939291906115be565b60405180910390f35b61021f600480360381019061021a9190611611565b610d4d565b60405161022c9190611594565b60405180910390f35b61024f600480360381019061024a91906116a8565b610d62565b005b60007f4e2312e0000000000000000000000000000000000000000000000000000000007bffffffffffffffffffffffffffffffffffffffffffffffffffffffff1916827bffffffffffffffffffffffffffffffffffffffffffffffffffffffff191614806102c457506102c382610de8565b5b9050919050565b600360009054906101000a900473ffffffffffffffffffffffffffffffffffffffff1681565b60006004600083815260200190815260200160002090508060010160009054906101000a900473ffffffffffffffffffffffffffffffffffffffff1673ffffffffffffffffffffffffffffffffffffffff163373ffffffffffffffffffffffffffffffffffffffff161461039a576040517f08c379a000000000000000000000000000000000000000000000000000000000815260040161039190611732565b60405180910390fd5b8060040160009054906101000a900460ff166103eb576040517f08c379a00000000000000000000000000000000000000000000000000000000081526004016103e29061179e565b60405180910390fd5b600260009054906101000a900473ffffffffffffffffffffffffffffffffffffffff1673ffffffffffffffffffffffffffffffffffffffff1663f242432a308360010160009054906101000a900473ffffffffffffffffffffffffffffffffffffffff16846000015485600201546040518563ffffffff1660e01b815260040161047894939291906117f5565b600060405180830381600087803b15801561049257600080fd5b505af11580156104a6573d6000803e3d6000fd5b5050505060008160040160006101000a81548160ff0219169083151502179055507f6318005f6dc5a71d3e4ad5b4d1fe455ef3402d62b64573777af55bb6bfe3daab826040516104f6919061184d565b60405180910390a15050565b600260009054906101000a900473ffffffffffffffffffffffffffffffffffffffff1681565b60006004600084815260200190815260200160002090508060040160009054906101000a900460ff16610590576040517f08c379a00000000000000000000000000000000000000000000000000000000081526004016105879061179e565b60405180910390fd5b81816002015410156105d7576040517f08c379a00000000000000000000000000000000000000000000000000000000081526004016105ce906118b4565b60405180910390fd5b60008282600301546105e99190611903565b905080600360009054906101000a900473ffffffffffffffffffffffffffffffffffffffff1673ffffffffffffffffffffffffffffffffffffffff1663dd62ed3e33306040518363ffffffff1660e01b8152600401610649929190611945565b602060405180830381865afa158015610666573d6000803e3d6000fd5b505050506040513d601f19601f8201168201806040525081019061068a9190611983565b10156106cb576040517f08c379a00000000000000000000000000000000000000000000000000000000081526004016106c2906119fc565b60405180910390fd5b600360009054906101000a900473ffffffffffffffffffffffffffffffffffffffff1673ffffffffffffffffffffffffffffffffffffffff166323b872dd338460010160009054906101000a900473ffffffffffffffffffffffffffffffffffffffff16846040518463ffffffff1660e01b815260040161074e93929190611a1c565b6020604051808303816000875af115801561076d573d6000803e3d6000fd5b505050506040513d601f19601f820116820180604052508101906107919190611a7f565b50600260009054906101000a900473ffffffffffffffffffffffffffffffffffffffff1673ffffffffffffffffffffffffffffffffffffffff1663f242432a30338560000154876040518563ffffffff1660e01b81526004016107f794939291906117f5565b600060405180830381600087803b15801561081157600080fd5b505af1158015610825573d6000803e3d6000fd5b505050508282600201600082825461083d9190611aac565b9250508190555060008260020154036108a55760008260040160006101000a81548160ff0219169083151502179055507f6318005f6dc5a71d3e4ad5b4d1fe455ef3402d62b64573777af55bb6bfe3daab8460405161089c919061184d565b60405180910390a15b7fa70b1a854695e7921b122988e216d3a6cd10ed799017c67b1ff231967e6bf56d848360010160009054906101000a900473ffffffffffffffffffffffffffffffffffffffff16338685604051610900959493929190611ae0565b60405180910390a150505050565b610916610e52565b6109206000610ed9565b565b60008060009054906101000a900473ffffffffffffffffffffffffffffffffffffffff16905090565b81600260009054906101000a900473ffffffffffffffffffffffffffffffffffffffff1673ffffffffffffffffffffffffffffffffffffffff1662fdd58e33866040518363ffffffff1660e01b81526004016109a8929190611b33565b602060405180830381865afa1580156109c5573d6000803e3d6000fd5b505050506040513d601f19601f820116820180604052508101906109e99190611983565b1015610a2a576040517f08c379a0000000000000000000000000000000000000000000000000000000008152600401610a2190611ba8565b60405180910390fd5b600260009054906101000a900473ffffffffffffffffffffffffffffffffffffffff1673ffffffffffffffffffffffffffffffffffffffff1663e985e9c533306040518363ffffffff1660e01b8152600401610a87929190611945565b602060405180830381865afa158015610aa4573d6000803e3d6000fd5b505050506040513d601f19601f82011682018060405250810190610ac89190611a7f565b610b07576040517f08c379a0000000000000000000000000000000000000000000000000000000008152600401610afe90611c14565b60405180910390fd5b60016000815480929190610b1a90611c34565b91905055506040518060a001604052808481526020013373ffffffffffffffffffffffffffffffffffffffff168152602001838152602001828152602001600115158152506004600060015481526020019081526020016000206000820151816000015560208201518160010160006101000a81548173ffffffffffffffffffffffffffffffffffffffff021916908373ffffffffffffffffffffffffffffffffffffffff160217905550604082015181600201556060820151816003015560808201518160040160006101000a81548160ff021916908315150217905550905050600260009054906101000a900473ffffffffffffffffffffffffffffffffffffffff1673ffffffffffffffffffffffffffffffffffffffff1663f242432a333086866040518563ffffffff1660e01b8152600401610c5d94939291906117f5565b600060405180830381600087803b158015610c7757600080fd5b505af1158015610c8b573d6000803e3d6000fd5b505050507f1e9d45789795021c76ee4b02700b847667a4f82249aed1f3a7d92b7806d1087e60015484338585604051610cc8959493929190611c7c565b60405180910390a1505050565b600063bc197c8160e01b905095945050505050565b60046020528060005260406000206000915090508060000154908060010160009054906101000a900473ffffffffffffffffffffffffffffffffffffffff16908060020154908060030154908060040160009054906101000a900460ff16905085565b600063f23a6e6160e01b905095945050505050565b610d6a610e52565b600073ffffffffffffffffffffffffffffffffffffffff168173ffffffffffffffffffffffffffffffffffffffff1603610ddc5760006040517f1e4fbdf7000000000000000000000000000000000000000000000000000000008152600401610dd3919061120e565b60405180910390fd5b610de581610ed9565b50565b60007f01ffc9a7000000000000000000000000000000000000000000000000000000007bffffffffffffffffffffffffffffffffffffffffffffffffffffffff1916827bffffffffffffffffffffffffffffffffffffffffffffffffffffffff1916149050919050565b610e5a610f9d565b73ffffffffffffffffffffffffffffffffffffffff16610e78610922565b73ffffffffffffffffffffffffffffffffffffffff1614610ed757610e9b610f9d565b6040517f118cdaa7000000000000000000000000000000000000000000000000000000008152600401610ece919061120e565b60405180910390fd5b565b60008060009054906101000a900473ffffffffffffffffffffffffffffffffffffffff169050816000806101000a81548173ffffffffffffffffffffffffffffffffffffffff021916908373ffffffffffffffffffffffffffffffffffffffff1602179055508173ffffffffffffffffffffffffffffffffffffffff168173ffffffffffffffffffffffffffffffffffffffff167f8be0079c531659141344cd1fd0a4f28419497f9722a3daafe3b4186f6b6457e060405160405180910390a35050565b600033905090565b6000604051905090565b600080fd5b600080fd5b60007fffffffff0000000000000000000000000000000000000000000000000000000082169050919050565b610fee81610fb9565b8114610ff957600080fd5b50565b60008135905061100b81610fe5565b92915050565b60006020828403121561102757611026610faf565b5b600061103584828501610ffc565b91505092915050565b60008115159050919050565b6110538161103e565b82525050565b600060208201905061106e600083018461104a565b92915050565b600073ffffffffffffffffffffffffffffffffffffffff82169050919050565b6000819050919050565b60006110b96110b46110af84611074565b611094565b611074565b9050919050565b60006110cb8261109e565b9050919050565b60006110dd826110c0565b9050919050565b6110ed816110d2565b82525050565b600060208201905061110860008301846110e4565b92915050565b6000819050919050565b6111218161110e565b811461112c57600080fd5b50565b60008135905061113e81611118565b92915050565b60006020828403121561115a57611159610faf565b5b60006111688482850161112f565b91505092915050565b600061117c826110c0565b9050919050565b61118c81611171565b82525050565b60006020820190506111a76000830184611183565b92915050565b600080604083850312156111c4576111c3610faf565b5b60006111d28582860161112f565b92505060206111e38582860161112f565b9150509250929050565b60006111f882611074565b9050919050565b611208816111ed565b82525050565b600060208201905061122360008301846111ff565b92915050565b60008060006060848603121561124257611241610faf565b5b60006112508682870161112f565b93505060206112618682870161112f565b92505060406112728682870161112f565b9150509250925092565b611285816111ed565b811461129057600080fd5b50565b6000813590506112a28161127c565b92915050565b600080fd5b6000601f19601f8301169050919050565b7f4e487b7100000000000000000000000000000000000000000000000000000000600052604160045260246000fd5b6112f6826112ad565b810181811067ffffffffffffffff82111715611315576113146112be565b5b80604052505050565b6000611328610fa5565b905061133482826112ed565b919050565b600067ffffffffffffffff821115611354576113536112be565b5b602082029050602081019050919050565b600080fd5b600061137d61137884611339565b61131e565b905080838252602082019050602084028301858111156113a05761139f611365565b5b835b818110156113c957806113b5888261112f565b8452602084019350506020810190506113a2565b5050509392505050565b600082601f8301126113e8576113e76112a8565b5b81356113f884826020860161136a565b91505092915050565b600080fd5b600067ffffffffffffffff821115611421576114206112be565b5b61142a826112ad565b9050602081019050919050565b82818337600083830152505050565b600061145961145484611406565b61131e565b90508281526020810184848401111561147557611474611401565b5b611480848285611437565b509392505050565b600082601f83011261149d5761149c6112a8565b5b81356114ad848260208601611446565b91505092915050565b600080600080600060a086880312156114d2576114d1610faf565b5b60006114e088828901611293565b95505060206114f188828901611293565b945050604086013567ffffffffffffffff81111561151257611511610fb4565b5b61151e888289016113d3565b935050606086013567ffffffffffffffff81111561153f5761153e610fb4565b5b61154b888289016113d3565b925050608086013567ffffffffffffffff81111561156c5761156b610fb4565b5b61157888828901611488565b9150509295509295909350565b61158e81610fb9565b82525050565b60006020820190506115a96000830184611585565b92915050565b6115b88161110e565b82525050565b600060a0820190506115d360008301886115af565b6115e060208301876111ff565b6115ed60408301866115af565b6115fa60608301856115af565b611607608083018461104a565b9695505050505050565b600080600080600060a0868803121561162d5761162c610faf565b5b600061163b88828901611293565b955050602061164c88828901611293565b945050604061165d8882890161112f565b935050606061166e8882890161112f565b925050608086013567ffffffffffffffff81111561168f5761168e610fb4565b5b61169b88828901611488565b9150509295509295909350565b6000602082840312156116be576116bd610faf565b5b60006116cc84828501611293565b91505092915050565b600082825260208201905092915050565b7f4e6f74207468652073656c6c6572000000000000000000000000000000000000600082015250565b600061171c600e836116d5565b9150611727826116e6565b602082019050919050565b6000602082019050818103600083015261174b8161170f565b9050919050565b7f4c697374696e67206e6f74206163746976650000000000000000000000000000600082015250565b60006117886012836116d5565b915061179382611752565b602082019050919050565b600060208201905081810360008301526117b78161177b565b9050919050565b600082825260208201905092915050565b50565b60006117df6000836117be565b91506117ea826117cf565b600082019050919050565b600060a08201905061180a60008301876111ff565b61181760208301866111ff565b61182460408301856115af565b61183160608301846115af565b8181036080830152611842816117d2565b905095945050505050565b600060208201905061186260008301846115af565b92915050565b7f496e73756666696369656e7420616d6f756e74206f66206c697374696e677300600082015250565b600061189e601f836116d5565b91506118a982611868565b602082019050919050565b600060208201905081810360008301526118cd81611891565b9050919050565b7f4e487b7100000000000000000000000000000000000000000000000000000000600052601160045260246000fd5b600061190e8261110e565b91506119198361110e565b92508282026119278161110e565b9150828204841483151761193e5761193d6118d4565b5b5092915050565b600060408201905061195a60008301856111ff565b61196760208301846111ff565b9392505050565b60008151905061197d81611118565b92915050565b60006020828403121561199957611998610faf565b5b60006119a78482850161196e565b91505092915050565b7f496e73756666696369656e7420616c6c6f77616e636500000000000000000000600082015250565b60006119e66016836116d5565b91506119f1826119b0565b602082019050919050565b60006020820190508181036000830152611a15816119d9565b9050919050565b6000606082019050611a3160008301866111ff565b611a3e60208301856111ff565b611a4b60408301846115af565b949350505050565b611a5c8161103e565b8114611a6757600080fd5b50565b600081519050611a7981611a53565b92915050565b600060208284031215611a9557611a94610faf565b5b6000611aa384828501611a6a565b91505092915050565b6000611ab78261110e565b9150611ac28361110e565b9250828203905081811115611ada57611ad96118d4565b5b92915050565b600060a082019050611af560008301886115af565b611b0260208301876111ff565b611b0f60408301866111ff565b611b1c60608301856115af565b611b2960808301846115af565b9695505050505050565b6000604082019050611b4860008301856111ff565b611b5560208301846115af565b9392505050565b7f496e73756666696369656e742062616c616e6365000000000000000000000000600082015250565b6000611b926014836116d5565b9150611b9d82611b5c565b602082019050919050565b60006020820190508181036000830152611bc181611b85565b9050919050565b7f4e6f7420617070726f7665640000000000000000000000000000000000000000600082015250565b6000611bfe600c836116d5565b9150611c0982611bc8565b602082019050919050565b60006020820190508181036000830152611c2d81611bf1565b9050919050565b6000611c3f8261110e565b91507fffffffffffffffffffffffffffffffffffffffffffffffffffffffffffffffff8203611c7157611c706118d4565b5b600182019050919050565b600060a082019050611c9160008301886115af565b611c9e60208301876115af565b611cab60408301866111ff565b611cb860608301856115af565b611cc560808301846115af565b969550505050505056fea264697066735822122045625e72f00828aec594d6ae610d3857824d59e7d470d373ca6f51233498312e64736f6c634300081c0033","opcodes":"PUSH1 0x80 PUSH1 0x40 MSTORE CALLVALUE DUP1 ISZERO PUSH2 0x10 JUMPI PUSH1 0x0 DUP1 REVERT JUMPDEST POP PUSH1 0x40 MLOAD PUSH2 0x1FE3 CODESIZE SUB DUP1 PUSH2 0x1FE3 DUP4 CODECOPY DUP2 DUP2 ADD PUSH1 0x40 MSTORE DUP2 ADD SWAP1 PUSH2 0x32 SWAP2 SWAP1 PUSH2 0x265 JUMP JUMPDEST CALLER PUSH1 0x0 PUSH20 0xFFFFFFFFFFFFFFFFFFFFFFFFFFFFFFFFFFFFFFFF AND DUP2 PUSH20 0xFFFFFFFFFFFFFFFFFFFFFFFFFFFFFFFFFFFFFFFF AND SUB PUSH2 0xA5 JUMPI PUSH1 0x0 PUSH1 0x40 MLOAD PUSH32 0x1E4FBDF700000000000000000000000000000000000000000000000000000000 DUP2 MSTORE PUSH1 0x4 ADD PUSH2 0x9C SWAP2 SWAP1 PUSH2 0x2B4 JUMP JUMPDEST PUSH1 0x40 MLOAD DUP1 SWAP2 SUB SWAP1 REVERT JUMPDEST PUSH2 0xB4 DUP2 PUSH2 0x13E PUSH1 0x20 SHL PUSH1 0x20 SHR JUMP JUMPDEST POP DUP2 PUSH1 0x2 PUSH1 0x0 PUSH2 0x100 EXP DUP2 SLOAD DUP2 PUSH20 0xFFFFFFFFFFFFFFFFFFFFFFFFFFFFFFFFFFFFFFFF MUL NOT AND SWAP1 DUP4 PUSH20 0xFFFFFFFFFFFFFFFFFFFFFFFFFFFFFFFFFFFFFFFF AND MUL OR SWAP1 SSTORE POP DUP1 PUSH1 0x3 PUSH1 0x0 PUSH2 0x100 EXP DUP2 SLOAD DUP2 PUSH20 0xFFFFFFFFFFFFFFFFFFFFFFFFFFFFFFFFFFFFFFFF MUL NOT AND SWAP1 DUP4 PUSH20 0xFFFFFFFFFFFFFFFFFFFFFFFFFFFFFFFFFFFFFFFF AND MUL OR SWAP1 SSTORE POP POP POP PUSH2 0x2CF JUMP JUMPDEST PUSH1 0x0 DUP1 PUSH1 0x0 SWAP1 SLOAD SWAP1 PUSH2 0x100 EXP SWAP1 DIV PUSH20 0xFFFFFFFFFFFFFFFFFFFFFFFFFFFFFFFFFFFFFFFF AND SWAP1 POP DUP2 PUSH1 0x0 DUP1 PUSH2 0x100 EXP DUP2 SLOAD DUP2 PUSH20 0xFFFFFFFFFFFFFFFFFFFFFFFFFFFFFFFFFFFFFFFF MUL NOT AND SWAP1 DUP4 PUSH20 0xFFFFFFFFFFFFFFFFFFFFFFFFFFFFFFFFFFFFFFFF AND MUL OR SWAP1 SSTORE POP DUP2 PUSH20 0xFFFFFFFFFFFFFFFFFFFFFFFFFFFFFFFFFFFFFFFF AND DUP2 PUSH20 0xFFFFFFFFFFFFFFFFFFFFFFFFFFFFFFFFFFFFFFFF AND PUSH32 0x8BE0079C531659141344CD1FD0A4F28419497F9722A3DAAFE3B4186F6B6457E0 PUSH1 0x40 MLOAD PUSH1 0x40 MLOAD DUP1 SWAP2 SUB SWAP1 LOG3 POP POP JUMP JUMPDEST PUSH1 0x0 DUP1 REVERT JUMPDEST PUSH1 0x0 PUSH20 0xFFFFFFFFFFFFFFFFFFFFFFFFFFFFFFFFFFFFFFFF DUP3 AND SWAP1 POP SWAP2 SWAP1 POP JUMP JUMPDEST PUSH1 0x0 PUSH2 0x232 DUP3 PUSH2 0x207 JUMP JUMPDEST SWAP1 POP SWAP2 SWAP1 POP JUMP JUMPDEST PUSH2 0x242 DUP2 PUSH2 0x227 JUMP JUMPDEST DUP2 EQ PUSH2 0x24D JUMPI PUSH1 0x0 DUP1 REVERT JUMPDEST POP JUMP JUMPDEST PUSH1 0x0 DUP2 MLOAD SWAP1 POP PUSH2 0x25F DUP2 PUSH2 0x239 JUMP JUMPDEST SWAP3 SWAP2 POP POP JUMP JUMPDEST PUSH1 0x0 DUP1 PUSH1 0x40 DUP4 DUP6 SUB SLT ISZERO PUSH2 0x27C JUMPI PUSH2 0x27B PUSH2 0x202 JUMP JUMPDEST JUMPDEST PUSH1 0x0 PUSH2 0x28A DUP6 DUP3 DUP7 ADD PUSH2 0x250 JUMP JUMPDEST SWAP3 POP POP PUSH1 0x20 PUSH2 0x29B DUP6 DUP3 DUP7 ADD PUSH2 0x250 JUMP JUMPDEST SWAP2 POP POP SWAP3 POP SWAP3 SWAP1 POP JUMP JUMPDEST PUSH2 0x2AE DUP2 PUSH2 0x227 JUMP JUMPDEST DUP3 MSTORE POP POP JUMP JUMPDEST PUSH1 0x0 PUSH1 0x20 DUP3 ADD SWAP1 POP PUSH2 0x2C9 PUSH1 0x0 DUP4 ADD DUP5 PUSH2 0x2A5 JUMP JUMPDEST SWAP3 SWAP2 POP POP JUMP JUMPDEST PUSH2 0x1D05 DUP1 PUSH2 0x2DE PUSH1 0x0 CODECOPY PUSH1 0x0 RETURN INVALID PUSH1 0x80 PUSH1 0x40 MSTORE CALLVALUE DUP1 ISZERO PUSH2 0x10 JUMPI PUSH1 0x0 DUP1 REVERT JUMPDEST POP PUSH1 0x4 CALLDATASIZE LT PUSH2 0xB4 JUMPI PUSH1 0x0 CALLDATALOAD PUSH1 0xE0 SHR DUP1 PUSH4 0x8DA5CB5B GT PUSH2 0x71 JUMPI DUP1 PUSH4 0x8DA5CB5B EQ PUSH2 0x167 JUMPI DUP1 PUSH4 0xB03053B6 EQ PUSH2 0x185 JUMPI DUP1 PUSH4 0xBC197C81 EQ PUSH2 0x1A1 JUMPI DUP1 PUSH4 0xDE74E57B EQ PUSH2 0x1D1 JUMPI DUP1 PUSH4 0xF23A6E61 EQ PUSH2 0x205 JUMPI DUP1 PUSH4 0xF2FDE38B EQ PUSH2 0x235 JUMPI PUSH2 0xB4 JUMP JUMPDEST DUP1 PUSH4 0x1FFC9A7 EQ PUSH2 0xB9 JUMPI DUP1 PUSH4 0x11EAC855 EQ PUSH2 0xE9 JUMPI DUP1 PUSH4 0x305A67A8 EQ PUSH2 0x107 JUMPI DUP1 PUSH4 0x637BF795 EQ PUSH2 0x123 JUMPI DUP1 PUSH4 0x70876C98 EQ PUSH2 0x141 JUMPI DUP1 PUSH4 0x715018A6 EQ PUSH2 0x15D JUMPI JUMPDEST PUSH1 0x0 DUP1 REVERT JUMPDEST PUSH2 0xD3 PUSH1 0x4 DUP1 CALLDATASIZE SUB DUP2 ADD SWAP1 PUSH2 0xCE SWAP2 SWAP1 PUSH2 0x1011 JUMP JUMPDEST PUSH2 0x251 JUMP JUMPDEST PUSH1 0x40 MLOAD PUSH2 0xE0 SWAP2 SWAP1 PUSH2 0x1059 JUMP JUMPDEST PUSH1 0x40 MLOAD DUP1 SWAP2 SUB SWAP1 RETURN JUMPDEST PUSH2 0xF1 PUSH2 0x2CB JUMP JUMPDEST PUSH1 0x40 MLOAD PUSH2 0xFE SWAP2 SWAP1 PUSH2 0x10F3 JUMP JUMPDEST PUSH1 0x40 MLOAD DUP1 SWAP2 SUB SWAP1 RETURN JUMPDEST PUSH2 0x121 PUSH1 0x4 DUP1 CALLDATASIZE SUB DUP2 ADD SWAP1 PUSH2 0x11C SWAP2 SWAP1 PUSH2 0x1144 JUMP JUMPDEST PUSH2 0x2F1 JUMP JUMPDEST STOP JUMPDEST PUSH2 0x12B PUSH2 0x502 JUMP JUMPDEST PUSH1 0x40 MLOAD PUSH2 0x138 SWAP2 SWAP1 PUSH2 0x1192 JUMP JUMPDEST PUSH1 0x40 MLOAD DUP1 SWAP2 SUB SWAP1 RETURN JUMPDEST PUSH2 0x15B PUSH1 0x4 DUP1 CALLDATASIZE SUB DUP2 ADD SWAP1 PUSH2 0x156 SWAP2 SWAP1 PUSH2 0x11AD JUMP JUMPDEST PUSH2 0x528 JUMP JUMPDEST STOP JUMPDEST PUSH2 0x165 PUSH2 0x90E JUMP JUMPDEST STOP JUMPDEST PUSH2 0x16F PUSH2 0x922 JUMP JUMPDEST PUSH1 0x40 MLOAD PUSH2 0x17C SWAP2 SWAP1 PUSH2 0x120E JUMP JUMPDEST PUSH1 0x40 MLOAD DUP1 SWAP2 SUB SWAP1 RETURN JUMPDEST PUSH2 0x19F PUSH1 0x4 DUP1 CALLDATASIZE SUB DUP2 ADD SWAP1 PUSH2 0x19A SWAP2 SWAP1 PUSH2 0x1229 JUMP JUMPDEST PUSH2 0x94B JUMP JUMPDEST STOP JUMPDEST PUSH2 0x1BB PUSH1 0x4 DUP1 CALLDATASIZE SUB DUP2 ADD SWAP1 PUSH2 0x1B6 SWAP2 SWAP1 PUSH2 0x14B6 JUMP JUMPDEST PUSH2 0xCD5 JUMP JUMPDEST PUSH1 0x40 MLOAD PUSH2 0x1C8 SWAP2 SWAP1 PUSH2 0x1594 JUMP JUMPDEST PUSH1 0x40 MLOAD DUP1 SWAP2 SUB SWAP1 RETURN JUMPDEST PUSH2 0x1EB PUSH1 0x4 DUP1 CALLDATASIZE SUB DUP2 ADD SWAP1 PUSH2 0x1E6 SWAP2 SWAP1 PUSH2 0x1144 JUMP JUMPDEST PUSH2 0xCEA JUMP JUMPDEST PUSH1 0x40 MLOAD PUSH2 0x1FC SWAP6 SWAP5 SWAP4 SWAP3 SWAP2 SWAP1 PUSH2 0x15BE JUMP JUMPDEST PUSH1 0x40 MLOAD DUP1 SWAP2 SUB SWAP1 RETURN JUMPDEST PUSH2 0x21F PUSH1 0x4 DUP1 CALLDATASIZE SUB DUP2 ADD SWAP1 PUSH2 0x21A SWAP2 SWAP1 PUSH2 0x1611 JUMP JUMPDEST PUSH2 0xD4D JUMP JUMPDEST PUSH1 0x40 MLOAD PUSH2 0x22C SWAP2 SWAP1 PUSH2 0x1594 JUMP JUMPDEST PUSH1 0x40 MLOAD DUP1 SWAP2 SUB SWAP1 RETURN JUMPDEST PUSH2 0x24F PUSH1 0x4 DUP1 CALLDATASIZE SUB DUP2 ADD SWAP1 PUSH2 0x24A SWAP2 SWAP1 PUSH2 0x16A8 JUMP JUMPDEST PUSH2 0xD62 JUMP JUMPDEST STOP JUMPDEST PUSH1 0x0 PUSH32 0x4E2312E000000000000000000000000000000000000000000000000000000000 PUSH28 0xFFFFFFFFFFFFFFFFFFFFFFFFFFFFFFFFFFFFFFFFFFFFFFFFFFFFFFFF NOT AND DUP3 PUSH28 0xFFFFFFFFFFFFFFFFFFFFFFFFFFFFFFFFFFFFFFFFFFFFFFFFFFFFFFFF NOT AND EQ DUP1 PUSH2 0x2C4 JUMPI POP PUSH2 0x2C3 DUP3 PUSH2 0xDE8 JUMP JUMPDEST JUMPDEST SWAP1 POP SWAP2 SWAP1 POP JUMP JUMPDEST PUSH1 0x3 PUSH1 0x0 SWAP1 SLOAD SWAP1 PUSH2 0x100 EXP SWAP1 DIV PUSH20 0xFFFFFFFFFFFFFFFFFFFFFFFFFFFFFFFFFFFFFFFF AND DUP2 JUMP JUMPDEST PUSH1 0x0 PUSH1 0x4 PUSH1 0x0 DUP4 DUP2 MSTORE PUSH1 0x20 ADD SWAP1 DUP2 MSTORE PUSH1 0x20 ADD PUSH1 0x0 KECCAK256 SWAP1 POP DUP1 PUSH1 0x1 ADD PUSH1 0x0 SWAP1 SLOAD SWAP1 PUSH2 0x100 EXP SWAP1 DIV PUSH20 0xFFFFFFFFFFFFFFFFFFFFFFFFFFFFFFFFFFFFFFFF AND PUSH20 0xFFFFFFFFFFFFFFFFFFFFFFFFFFFFFFFFFFFFFFFF AND CALLER PUSH20 0xFFFFFFFFFFFFFFFFFFFFFFFFFFFFFFFFFFFFFFFF AND EQ PUSH2 0x39A JUMPI PUSH1 0x40 MLOAD PUSH32 0x8C379A000000000000000000000000000000000000000000000000000000000 DUP2 MSTORE PUSH1 0x4 ADD PUSH2 0x391 SWAP1 PUSH2 0x1732 JUMP JUMPDEST PUSH1 0x40 MLOAD DUP1 SWAP2 SUB SWAP1 REVERT JUMPDEST DUP1 PUSH1 0x4 ADD PUSH1 0x0 SWAP1 SLOAD SWAP1 PUSH2 0x100 EXP SWAP1 DIV PUSH1 0xFF AND PUSH2 0x3EB JUMPI PUSH1 0x40 MLOAD PUSH32 0x8C379A000000000000000000000000000000000000000000000000000000000 DUP2 MSTORE PUSH1 0x4 ADD PUSH2 0x3E2 SWAP1 PUSH2 0x179E JUMP JUMPDEST PUSH1 0x40 MLOAD DUP1 SWAP2 SUB SWAP1 REVERT JUMPDEST PUSH1 0x2 PUSH1 0x0 SWAP1 SLOAD SWAP1 PUSH2 0x100 EXP SWAP1 DIV PUSH20 0xFFFFFFFFFFFFFFFFFFFFFFFFFFFFFFFFFFFFFFFF AND PUSH20 0xFFFFFFFFFFFFFFFFFFFFFFFFFFFFFFFFFFFFFFFF AND PUSH4 0xF242432A ADDRESS DUP4 PUSH1 0x1 ADD PUSH1 0x0 SWAP1 SLOAD SWAP1 PUSH2 0x100 EXP SWAP1 DIV PUSH20 0xFFFFFFFFFFFFFFFFFFFFFFFFFFFFFFFFFFFFFFFF AND DUP5 PUSH1 0x0 ADD SLOAD DUP6 PUSH1 0x2 ADD SLOAD PUSH1 0x40 MLOAD DUP6 PUSH4 0xFFFFFFFF AND PUSH1 0xE0 SHL DUP2 MSTORE PUSH1 0x4 ADD PUSH2 0x478 SWAP5 SWAP4 SWAP3 SWAP2 SWAP1 PUSH2 0x17F5 JUMP JUMPDEST PUSH1 0x0 PUSH1 0x40 MLOAD DUP1 DUP4 SUB DUP2 PUSH1 0x0 DUP8 DUP1 EXTCODESIZE ISZERO DUP1 ISZERO PUSH2 0x492 JUMPI PUSH1 0x0 DUP1 REVERT JUMPDEST POP GAS CALL ISZERO DUP1 ISZERO PUSH2 0x4A6 JUMPI RETURNDATASIZE PUSH1 0x0 DUP1 RETURNDATACOPY RETURNDATASIZE PUSH1 0x0 REVERT JUMPDEST POP POP POP POP PUSH1 0x0 DUP2 PUSH1 0x4 ADD PUSH1 0x0 PUSH2 0x100 EXP DUP2 SLOAD DUP2 PUSH1 0xFF MUL NOT AND SWAP1 DUP4 ISZERO ISZERO MUL OR SWAP1 SSTORE POP PUSH32 0x6318005F6DC5A71D3E4AD5B4D1FE455EF3402D62B64573777AF55BB6BFE3DAAB DUP3 PUSH1 0x40 MLOAD PUSH2 0x4F6 SWAP2 SWAP1 PUSH2 0x184D JUMP JUMPDEST PUSH1 0x40 MLOAD DUP1 SWAP2 SUB SWAP1 LOG1 POP POP JUMP JUMPDEST PUSH1 0x2 PUSH1 0x0 SWAP1 SLOAD SWAP1 PUSH2 0x100 EXP SWAP1 DIV PUSH20 0xFFFFFFFFFFFFFFFFFFFFFFFFFFFFFFFFFFFFFFFF AND DUP2 JUMP JUMPDEST PUSH1 0x0 PUSH1 0x4 PUSH1 0x0 DUP5 DUP2 MSTORE PUSH1 0x20 ADD SWAP1 DUP2 MSTORE PUSH1 0x20 ADD PUSH1 0x0 KECCAK256 SWAP1 POP DUP1 PUSH1 0x4 ADD PUSH1 0x0 SWAP1 SLOAD SWAP1 PUSH2 0x100 EXP SWAP1 DIV PUSH1 0xFF AND PUSH2 0x590 JUMPI PUSH1 0x40 MLOAD PUSH32 0x8C379A000000000000000000000000000000000000000000000000000000000 DUP2 MSTORE PUSH1 0x4 ADD PUSH2 0x587 SWAP1 PUSH2 0x179E JUMP JUMPDEST PUSH1 0x40 MLOAD DUP1 SWAP2 SUB SWAP1 REVERT JUMPDEST DUP2 DUP2 PUSH1 0x2 ADD SLOAD LT ISZERO PUSH2 0x5D7 JUMPI PUSH1 0x40 MLOAD PUSH32 0x8C379A000000000000000000000000000000000000000000000000000000000 DUP2 MSTORE PUSH1 0x4 ADD PUSH2 0x5CE SWAP1 PUSH2 0x18B4 JUMP JUMPDEST PUSH1 0x40 MLOAD DUP1 SWAP2 SUB SWAP1 REVERT JUMPDEST PUSH1 0x0 DUP3 DUP3 PUSH1 0x3 ADD SLOAD PUSH2 0x5E9 SWAP2 SWAP1 PUSH2 0x1903 JUMP JUMPDEST SWAP1 POP DUP1 PUSH1 0x3 PUSH1 0x0 SWAP1 SLOAD SWAP1 PUSH2 0x100 EXP SWAP1 DIV PUSH20 0xFFFFFFFFFFFFFFFFFFFFFFFFFFFFFFFFFFFFFFFF AND PUSH20 0xFFFFFFFFFFFFFFFFFFFFFFFFFFFFFFFFFFFFFFFF AND PUSH4 0xDD62ED3E CALLER ADDRESS PUSH1 0x40 MLOAD DUP4 PUSH4 0xFFFFFFFF AND PUSH1 0xE0 SHL DUP2 MSTORE PUSH1 0x4 ADD PUSH2 0x649 SWAP3 SWAP2 SWAP1 PUSH2 0x1945 JUMP JUMPDEST PUSH1 0x20 PUSH1 0x40 MLOAD DUP1 DUP4 SUB DUP2 DUP7 GAS STATICCALL ISZERO DUP1 ISZERO PUSH2 0x666 JUMPI RETURNDATASIZE PUSH1 0x0 DUP1 RETURNDATACOPY RETURNDATASIZE PUSH1 0x0 REVERT JUMPDEST POP POP POP POP PUSH1 0x40 MLOAD RETURNDATASIZE PUSH1 0x1F NOT PUSH1 0x1F DUP3 ADD AND DUP3 ADD DUP1 PUSH1 0x40 MSTORE POP DUP2 ADD SWAP1 PUSH2 0x68A SWAP2 SWAP1 PUSH2 0x1983 JUMP JUMPDEST LT ISZERO PUSH2 0x6CB JUMPI PUSH1 0x40 MLOAD PUSH32 0x8C379A000000000000000000000000000000000000000000000000000000000 DUP2 MSTORE PUSH1 0x4 ADD PUSH2 0x6C2 SWAP1 PUSH2 0x19FC JUMP JUMPDEST PUSH1 0x40 MLOAD DUP1 SWAP2 SUB SWAP1 REVERT JUMPDEST PUSH1 0x3 PUSH1 0x0 SWAP1 SLOAD SWAP1 PUSH2 0x100 EXP SWAP1 DIV PUSH20 0xFFFFFFFFFFFFFFFFFFFFFFFFFFFFFFFFFFFFFFFF AND PUSH20 0xFFFFFFFFFFFFFFFFFFFFFFFFFFFFFFFFFFFFFFFF AND PUSH4 0x23B872DD CALLER DUP5 PUSH1 0x1 ADD PUSH1 0x0 SWAP1 SLOAD SWAP1 PUSH2 0x100 EXP SWAP1 DIV PUSH20 0xFFFFFFFFFFFFFFFFFFFFFFFFFFFFFFFFFFFFFFFF AND DUP5 PUSH1 0x40 MLOAD DUP5 PUSH4 0xFFFFFFFF AND PUSH1 0xE0 SHL DUP2 MSTORE PUSH1 0x4 ADD PUSH2 0x74E SWAP4 SWAP3 SWAP2 SWAP1 PUSH2 0x1A1C JUMP JUMPDEST PUSH1 0x20 PUSH1 0x40 MLOAD DUP1 DUP4 SUB DUP2 PUSH1 0x0 DUP8 GAS CALL ISZERO DUP1 ISZERO PUSH2 0x76D JUMPI RETURNDATASIZE PUSH1 0x0 DUP1 RETURNDATACOPY RETURNDATASIZE PUSH1 0x0 REVERT JUMPDEST POP POP POP POP PUSH1 0x40 MLOAD RETURNDATASIZE PUSH1 0x1F NOT PUSH1 0x1F DUP3 ADD AND DUP3 ADD DUP1 PUSH1 0x40 MSTORE POP DUP2 ADD SWAP1 PUSH2 0x791 SWAP2 SWAP1 PUSH2 0x1A7F JUMP JUMPDEST POP PUSH1 0x2 PUSH1 0x0 SWAP1 SLOAD SWAP1 PUSH2 0x100 EXP SWAP1 DIV PUSH20 0xFFFFFFFFFFFFFFFFFFFFFFFFFFFFFFFFFFFFFFFF AND PUSH20 0xFFFFFFFFFFFFFFFFFFFFFFFFFFFFFFFFFFFFFFFF AND PUSH4 0xF242432A ADDRESS CALLER DUP6 PUSH1 0x0 ADD SLOAD DUP8 PUSH1 0x40 MLOAD DUP6 PUSH4 0xFFFFFFFF AND PUSH1 0xE0 SHL DUP2 MSTORE PUSH1 0x4 ADD PUSH2 0x7F7 SWAP5 SWAP4 SWAP3 SWAP2 SWAP1 PUSH2 0x17F5 JUMP JUMPDEST PUSH1 0x0 PUSH1 0x40 MLOAD DUP1 DUP4 SUB DUP2 PUSH1 0x0 DUP8 DUP1 EXTCODESIZE ISZERO DUP1 ISZERO PUSH2 0x811 JUMPI PUSH1 0x0 DUP1 REVERT JUMPDEST POP GAS CALL ISZERO DUP1 ISZERO PUSH2 0x825 JUMPI RETURNDATASIZE PUSH1 0x0 DUP1 RETURNDATACOPY RETURNDATASIZE PUSH1 0x0 REVERT JUMPDEST POP POP POP POP DUP3 DUP3 PUSH1 0x2 ADD PUSH1 0x0 DUP3 DUP3 SLOAD PUSH2 0x83D SWAP2 SWAP1 PUSH2 0x1AAC JUMP JUMPDEST SWAP3 POP POP DUP2 SWAP1 SSTORE POP PUSH1 0x0 DUP3 PUSH1 0x2 ADD SLOAD SUB PUSH2 0x8A5 JUMPI PUSH1 0x0 DUP3 PUSH1 0x4 ADD PUSH1 0x0 PUSH2 0x100 EXP DUP2 SLOAD DUP2 PUSH1 0xFF MUL NOT AND SWAP1 DUP4 ISZERO ISZERO MUL OR SWAP1 SSTORE POP PUSH32 0x6318005F6DC5A71D3E4AD5B4D1FE455EF3402D62B64573777AF55BB6BFE3DAAB DUP5 PUSH1 0x40 MLOAD PUSH2 0x89C SWAP2 SWAP1 PUSH2 0x184D JUMP JUMPDEST PUSH1 0x40 MLOAD DUP1 SWAP2 SUB SWAP1 LOG1 JUMPDEST PUSH32 0xA70B1A854695E7921B122988E216D3A6CD10ED799017C67B1FF231967E6BF56D DUP5 DUP4 PUSH1 0x1 ADD PUSH1 0x0 SWAP1 SLOAD SWAP1 PUSH2 0x100 EXP SWAP1 DIV PUSH20 0xFFFFFFFFFFFFFFFFFFFFFFFFFFFFFFFFFFFFFFFF AND CALLER DUP7 DUP6 PUSH1 0x40 MLOAD PUSH2 0x900 SWAP6 SWAP5 SWAP4 SWAP3 SWAP2 SWAP1 PUSH2 0x1AE0 JUMP JUMPDEST PUSH1 0x40 MLOAD DUP1 SWAP2 SUB SWAP1 LOG1 POP POP POP POP JUMP JUMPDEST PUSH2 0x916 PUSH2 0xE52 JUMP JUMPDEST PUSH2 0x920 PUSH1 0x0 PUSH2 0xED9 JUMP JUMPDEST JUMP JUMPDEST PUSH1 0x0 DUP1 PUSH1 0x0 SWAP1 SLOAD SWAP1 PUSH2 0x100 EXP SWAP1 DIV PUSH20 0xFFFFFFFFFFFFFFFFFFFFFFFFFFFFFFFFFFFFFFFF AND SWAP1 POP SWAP1 JUMP JUMPDEST DUP2 PUSH1 0x2 PUSH1 0x0 SWAP1 SLOAD SWAP1 PUSH2 0x100 EXP SWAP1 DIV PUSH20 0xFFFFFFFFFFFFFFFFFFFFFFFFFFFFFFFFFFFFFFFF AND PUSH20 0xFFFFFFFFFFFFFFFFFFFFFFFFFFFFFFFFFFFFFFFF AND PUSH3 0xFDD58E CALLER DUP7 PUSH1 0x40 MLOAD DUP4 PUSH4 0xFFFFFFFF AND PUSH1 0xE0 SHL DUP2 MSTORE PUSH1 0x4 ADD PUSH2 0x9A8 SWAP3 SWAP2 SWAP1 PUSH2 0x1B33 JUMP JUMPDEST PUSH1 0x20 PUSH1 0x40 MLOAD DUP1 DUP4 SUB DUP2 DUP7 GAS STATICCALL ISZERO DUP1 ISZERO PUSH2 0x9C5 JUMPI RETURNDATASIZE PUSH1 0x0 DUP1 RETURNDATACOPY RETURNDATASIZE PUSH1 0x0 REVERT JUMPDEST POP POP POP POP PUSH1 0x40 MLOAD RETURNDATASIZE PUSH1 0x1F NOT PUSH1 0x1F DUP3 ADD AND DUP3 ADD DUP1 PUSH1 0x40 MSTORE POP DUP2 ADD SWAP1 PUSH2 0x9E9 SWAP2 SWAP1 PUSH2 0x1983 JUMP JUMPDEST LT ISZERO PUSH2 0xA2A JUMPI PUSH1 0x40 MLOAD PUSH32 0x8C379A000000000000000000000000000000000000000000000000000000000 DUP2 MSTORE PUSH1 0x4 ADD PUSH2 0xA21 SWAP1 PUSH2 0x1BA8 JUMP JUMPDEST PUSH1 0x40 MLOAD DUP1 SWAP2 SUB SWAP1 REVERT JUMPDEST PUSH1 0x2 PUSH1 0x0 SWAP1 SLOAD SWAP1 PUSH2 0x100 EXP SWAP1 DIV PUSH20 0xFFFFFFFFFFFFFFFFFFFFFFFFFFFFFFFFFFFFFFFF AND PUSH20 0xFFFFFFFFFFFFFFFFFFFFFFFFFFFFFFFFFFFFFFFF AND PUSH4 0xE985E9C5 CALLER ADDRESS PUSH1 0x40 MLOAD DUP4 PUSH4 0xFFFFFFFF AND PUSH1 0xE0 SHL DUP2 MSTORE PUSH1 0x4 ADD PUSH2 0xA87 SWAP3 SWAP2 SWAP1 PUSH2 0x1945 JUMP JUMPDEST PUSH1 0x20 PUSH1 0x40 MLOAD DUP1 DUP4 SUB DUP2 DUP7 GAS STATICCALL ISZERO DUP1 ISZERO PUSH2 0xAA4 JUMPI RETURNDATASIZE PUSH1 0x0 DUP1 RETURNDATACOPY RETURNDATASIZE PUSH1 0x0 REVERT JUMPDEST POP POP POP POP PUSH1 0x40 MLOAD RETURNDATASIZE PUSH1 0x1F NOT PUSH1 0x1F DUP3 ADD AND DUP3 ADD DUP1 PUSH1 0x40 MSTORE POP DUP2 ADD SWAP1 PUSH2 0xAC8 SWAP2 SWAP1 PUSH2 0x1A7F JUMP JUMPDEST PUSH2 0xB07 JUMPI PUSH1 0x40 MLOAD PUSH32 0x8C379A000000000000000000000000000000000000000000000000000000000 DUP2 MSTORE PUSH1 0x4 ADD PUSH2 0xAFE SWAP1 PUSH2 0x1C14 JUMP JUMPDEST PUSH1 0x40 MLOAD DUP1 SWAP2 SUB SWAP1 REVERT JUMPDEST PUSH1 0x1 PUSH1 0x0 DUP2 SLOAD DUP1 SWAP3 SWAP2 SWAP1 PUSH2 0xB1A SWAP1 PUSH2 0x1C34 JUMP JUMPDEST SWAP2 SWAP1 POP SSTORE POP PUSH1 0x40 MLOAD DUP1 PUSH1 0xA0 ADD PUSH1 0x40 MSTORE DUP1 DUP5 DUP2 MSTORE PUSH1 0x20 ADD CALLER PUSH20 0xFFFFFFFFFFFFFFFFFFFFFFFFFFFFFFFFFFFFFFFF AND DUP2 MSTORE PUSH1 0x20 ADD DUP4 DUP2 MSTORE PUSH1 0x20 ADD DUP3 DUP2 MSTORE PUSH1 0x20 ADD PUSH1 0x1 ISZERO ISZERO DUP2 MSTORE POP PUSH1 0x4 PUSH1 0x0 PUSH1 0x1 SLOAD DUP2 MSTORE PUSH1 0x20 ADD SWAP1 DUP2 MSTORE PUSH1 0x20 ADD PUSH1 0x0 KECCAK256 PUSH1 0x0 DUP3 ADD MLOAD DUP2 PUSH1 0x0 ADD SSTORE PUSH1 0x20 DUP3 ADD MLOAD DUP2 PUSH1 0x1 ADD PUSH1 0x0 PUSH2 0x100 EXP DUP2 SLOAD DUP2 PUSH20 0xFFFFFFFFFFFFFFFFFFFFFFFFFFFFFFFFFFFFFFFF MUL NOT AND SWAP1 DUP4 PUSH20 0xFFFFFFFFFFFFFFFFFFFFFFFFFFFFFFFFFFFFFFFF AND MUL OR SWAP1 SSTORE POP PUSH1 0x40 DUP3 ADD MLOAD DUP2 PUSH1 0x2 ADD SSTORE PUSH1 0x60 DUP3 ADD MLOAD DUP2 PUSH1 0x3 ADD SSTORE PUSH1 0x80 DUP3 ADD MLOAD DUP2 PUSH1 0x4 ADD PUSH1 0x0 PUSH2 0x100 EXP DUP2 SLOAD DUP2 PUSH1 0xFF MUL NOT AND SWAP1 DUP4 ISZERO ISZERO MUL OR SWAP1 SSTORE POP SWAP1 POP POP PUSH1 0x2 PUSH1 0x0 SWAP1 SLOAD SWAP1 PUSH2 0x100 EXP SWAP1 DIV PUSH20 0xFFFFFFFFFFFFFFFFFFFFFFFFFFFFFFFFFFFFFFFF AND PUSH20 0xFFFFFFFFFFFFFFFFFFFFFFFFFFFFFFFFFFFFFFFF AND PUSH4 0xF242432A CALLER ADDRESS DUP7 DUP7 PUSH1 0x40 MLOAD DUP6 PUSH4 0xFFFFFFFF AND PUSH1 0xE0 SHL DUP2 MSTORE PUSH1 0x4 ADD PUSH2 0xC5D SWAP5 SWAP4 SWAP3 SWAP2 SWAP1 PUSH2 0x17F5 JUMP JUMPDEST PUSH1 0x0 PUSH1 0x40 MLOAD DUP1 DUP4 SUB DUP2 PUSH1 0x0 DUP8 DUP1 EXTCODESIZE ISZERO DUP1 ISZERO PUSH2 0xC77 JUMPI PUSH1 0x0 DUP1 REVERT JUMPDEST POP GAS CALL ISZERO DUP1 ISZERO PUSH2 0xC8B JUMPI RETURNDATASIZE PUSH1 0x0 DUP1 RETURNDATACOPY RETURNDATASIZE PUSH1 0x0 REVERT JUMPDEST POP POP POP POP PUSH32 0x1E9D45789795021C76EE4B02700B847667A4F82249AED1F3A7D92B7806D1087E PUSH1 0x1 SLOAD DUP5 CALLER DUP6 DUP6 PUSH1 0x40 MLOAD PUSH2 0xCC8 SWAP6 SWAP5 SWAP4 SWAP3 SWAP2 SWAP1 PUSH2 0x1C7C JUMP JUMPDEST PUSH1 0x40 MLOAD DUP1 SWAP2 SUB SWAP1 LOG1 POP POP POP JUMP JUMPDEST PUSH1 0x0 PUSH4 0xBC197C81 PUSH1 0xE0 SHL SWAP1 POP SWAP6 SWAP5 POP POP POP POP POP JUMP JUMPDEST PUSH1 0x4 PUSH1 0x20 MSTORE DUP1 PUSH1 0x0 MSTORE PUSH1 0x40 PUSH1 0x0 KECCAK256 PUSH1 0x0 SWAP2 POP SWAP1 POP DUP1 PUSH1 0x0 ADD SLOAD SWAP1 DUP1 PUSH1 0x1 ADD PUSH1 0x0 SWAP1 SLOAD SWAP1 PUSH2 0x100 EXP SWAP1 DIV PUSH20 0xFFFFFFFFFFFFFFFFFFFFFFFFFFFFFFFFFFFFFFFF AND SWAP1 DUP1 PUSH1 0x2 ADD SLOAD SWAP1 DUP1 PUSH1 0x3 ADD SLOAD SWAP1 DUP1 PUSH1 0x4 ADD PUSH1 0x0 SWAP1 SLOAD SWAP1 PUSH2 0x100 EXP SWAP1 DIV PUSH1 0xFF AND SWAP1 POP DUP6 JUMP JUMPDEST PUSH1 0x0 PUSH4 0xF23A6E61 PUSH1 0xE0 SHL SWAP1 POP SWAP6 SWAP5 POP POP POP POP POP JUMP JUMPDEST PUSH2 0xD6A PUSH2 0xE52 JUMP JUMPDEST PUSH1 0x0 PUSH20 0xFFFFFFFFFFFFFFFFFFFFFFFFFFFFFFFFFFFFFFFF AND DUP2 PUSH20 0xFFFFFFFFFFFFFFFFFFFFFFFFFFFFFFFFFFFFFFFF AND SUB PUSH2 0xDDC JUMPI PUSH1 0x0 PUSH1 0x40 MLOAD PUSH32 0x1E4FBDF700000000000000000000000000000000000000000000000000000000 DUP2 MSTORE PUSH1 0x4 ADD PUSH2 0xDD3 SWAP2 SWAP1 PUSH2 0x120E JUMP JUMPDEST PUSH1 0x40 MLOAD DUP1 SWAP2 SUB SWAP1 REVERT JUMPDEST PUSH2 0xDE5 DUP2 PUSH2 0xED9 JUMP JUMPDEST POP JUMP JUMPDEST PUSH1 0x0 PUSH32 0x1FFC9A700000000000000000000000000000000000000000000000000000000 PUSH28 0xFFFFFFFFFFFFFFFFFFFFFFFFFFFFFFFFFFFFFFFFFFFFFFFFFFFFFFFF NOT AND DUP3 PUSH28 0xFFFFFFFFFFFFFFFFFFFFFFFFFFFFFFFFFFFFFFFFFFFFFFFFFFFFFFFF NOT AND EQ SWAP1 POP SWAP2 SWAP1 POP JUMP JUMPDEST PUSH2 0xE5A PUSH2 0xF9D JUMP JUMPDEST PUSH20 0xFFFFFFFFFFFFFFFFFFFFFFFFFFFFFFFFFFFFFFFF AND PUSH2 0xE78 PUSH2 0x922 JUMP JUMPDEST PUSH20 0xFFFFFFFFFFFFFFFFFFFFFFFFFFFFFFFFFFFFFFFF AND EQ PUSH2 0xED7 JUMPI PUSH2 0xE9B PUSH2 0xF9D JUMP JUMPDEST PUSH1 0x40 MLOAD PUSH32 0x118CDAA700000000000000000000000000000000000000000000000000000000 DUP2 MSTORE PUSH1 0x4 ADD PUSH2 0xECE SWAP2 SWAP1 PUSH2 0x120E JUMP JUMPDEST PUSH1 0x40 MLOAD DUP1 SWAP2 SUB SWAP1 REVERT JUMPDEST JUMP JUMPDEST PUSH1 0x0 DUP1 PUSH1 0x0 SWAP1 SLOAD SWAP1 PUSH2 0x100 EXP SWAP1 DIV PUSH20 0xFFFFFFFFFFFFFFFFFFFFFFFFFFFFFFFFFFFFFFFF AND SWAP1 POP DUP2 PUSH1 0x0 DUP1 PUSH2 0x100 EXP DUP2 SLOAD DUP2 PUSH20 0xFFFFFFFFFFFFFFFFFFFFFFFFFFFFFFFFFFFFFFFF MUL NOT AND SWAP1 DUP4 PUSH20 0xFFFFFFFFFFFFFFFFFFFFFFFFFFFFFFFFFFFFFFFF AND MUL OR SWAP1 SSTORE POP DUP2 PUSH20 0xFFFFFFFFFFFFFFFFFFFFFFFFFFFFFFFFFFFFFFFF AND DUP2 PUSH20 0xFFFFFFFFFFFFFFFFFFFFFFFFFFFFFFFFFFFFFFFF AND PUSH32 0x8BE0079C531659141344CD1FD0A4F28419497F9722A3DAAFE3B4186F6B6457E0 PUSH1 0x40 MLOAD PUSH1 0x40 MLOAD DUP1 SWAP2 SUB SWAP1 LOG3 POP POP JUMP JUMPDEST PUSH1 0x0 CALLER SWAP1 POP SWAP1 JUMP JUMPDEST PUSH1 0x0 PUSH1 0x40 MLOAD SWAP1 POP SWAP1 JUMP JUMPDEST PUSH1 0x0 DUP1 REVERT JUMPDEST PUSH1 0x0 DUP1 REVERT JUMPDEST PUSH1 0x0 PUSH32 0xFFFFFFFF00000000000000000000000000000000000000000000000000000000 DUP3 AND SWAP1 POP SWAP2 SWAP1 POP JUMP JUMPDEST PUSH2 0xFEE DUP2 PUSH2 0xFB9 JUMP JUMPDEST DUP2 EQ PUSH2 0xFF9 JUMPI PUSH1 0x0 DUP1 REVERT JUMPDEST POP JUMP JUMPDEST PUSH1 0x0 DUP2 CALLDATALOAD SWAP1 POP PUSH2 0x100B DUP2 PUSH2 0xFE5 JUMP JUMPDEST SWAP3 SWAP2 POP POP JUMP JUMPDEST PUSH1 0x0 PUSH1 0x20 DUP3 DUP5 SUB SLT ISZERO PUSH2 0x1027 JUMPI PUSH2 0x1026 PUSH2 0xFAF JUMP JUMPDEST JUMPDEST PUSH1 0x0 PUSH2 0x1035 DUP5 DUP3 DUP6 ADD PUSH2 0xFFC JUMP JUMPDEST SWAP2 POP POP SWAP3 SWAP2 POP POP JUMP JUMPDEST PUSH1 0x0 DUP2 ISZERO ISZERO SWAP1 POP SWAP2 SWAP1 POP JUMP JUMPDEST PUSH2 0x1053 DUP2 PUSH2 0x103E JUMP JUMPDEST DUP3 MSTORE POP POP JUMP JUMPDEST PUSH1 0x0 PUSH1 0x20 DUP3 ADD SWAP1 POP PUSH2 0x106E PUSH1 0x0 DUP4 ADD DUP5 PUSH2 0x104A JUMP JUMPDEST SWAP3 SWAP2 POP POP JUMP JUMPDEST PUSH1 0x0 PUSH20 0xFFFFFFFFFFFFFFFFFFFFFFFFFFFFFFFFFFFFFFFF DUP3 AND SWAP1 POP SWAP2 SWAP1 POP JUMP JUMPDEST PUSH1 0x0 DUP2 SWAP1 POP SWAP2 SWAP1 POP JUMP JUMPDEST PUSH1 0x0 PUSH2 0x10B9 PUSH2 0x10B4 PUSH2 0x10AF DUP5 PUSH2 0x1074 JUMP JUMPDEST PUSH2 0x1094 JUMP JUMPDEST PUSH2 0x1074 JUMP JUMPDEST SWAP1 POP SWAP2 SWAP1 POP JUMP JUMPDEST PUSH1 0x0 PUSH2 0x10CB DUP3 PUSH2 0x109E JUMP JUMPDEST SWAP1 POP SWAP2 SWAP1 POP JUMP JUMPDEST PUSH1 0x0 PUSH2 0x10DD DUP3 PUSH2 0x10C0 JUMP JUMPDEST SWAP1 POP SWAP2 SWAP1 POP JUMP JUMPDEST PUSH2 0x10ED DUP2 PUSH2 0x10D2 JUMP JUMPDEST DUP3 MSTORE POP POP JUMP JUMPDEST PUSH1 0x0 PUSH1 0x20 DUP3 ADD SWAP1 POP PUSH2 0x1108 PUSH1 0x0 DUP4 ADD DUP5 PUSH2 0x10E4 JUMP JUMPDEST SWAP3 SWAP2 POP POP JUMP JUMPDEST PUSH1 0x0 DUP2 SWAP1 POP SWAP2 SWAP1 POP JUMP JUMPDEST PUSH2 0x1121 DUP2 PUSH2 0x110E JUMP JUMPDEST DUP2 EQ PUSH2 0x112C JUMPI PUSH1 0x0 DUP1 REVERT JUMPDEST POP JUMP JUMPDEST PUSH1 0x0 DUP2 CALLDATALOAD SWAP1 POP PUSH2 0x113E DUP2 PUSH2 0x1118 JUMP JUMPDEST SWAP3 SWAP2 POP POP JUMP JUMPDEST PUSH1 0x0 PUSH1 0x20 DUP3 DUP5 SUB SLT ISZERO PUSH2 0x115A JUMPI PUSH2 0x1159 PUSH2 0xFAF JUMP JUMPDEST JUMPDEST PUSH1 0x0 PUSH2 0x1168 DUP5 DUP3 DUP6 ADD PUSH2 0x112F JUMP JUMPDEST SWAP2 POP POP SWAP3 SWAP2 POP POP JUMP JUMPDEST PUSH1 0x0 PUSH2 0x117C DUP3 PUSH2 0x10C0 JUMP JUMPDEST SWAP1 POP SWAP2 SWAP1 POP JUMP JUMPDEST PUSH2 0x118C DUP2 PUSH2 0x1171 JUMP JUMPDEST DUP3 MSTORE POP POP JUMP JUMPDEST PUSH1 0x0 PUSH1 0x20 DUP3 ADD SWAP1 POP PUSH2 0x11A7 PUSH1 0x0 DUP4 ADD DUP5 PUSH2 0x1183 JUMP JUMPDEST SWAP3 SWAP2 POP POP JUMP JUMPDEST PUSH1 0x0 DUP1 PUSH1 0x40 DUP4 DUP6 SUB SLT ISZERO PUSH2 0x11C4 JUMPI PUSH2 0x11C3 PUSH2 0xFAF JUMP JUMPDEST JUMPDEST PUSH1 0x0 PUSH2 0x11D2 DUP6 DUP3 DUP7 ADD PUSH2 0x112F JUMP JUMPDEST SWAP3 POP POP PUSH1 0x20 PUSH2 0x11E3 DUP6 DUP3 DUP7 ADD PUSH2 0x112F JUMP JUMPDEST SWAP2 POP POP SWAP3 POP SWAP3 SWAP1 POP JUMP JUMPDEST PUSH1 0x0 PUSH2 0x11F8 DUP3 PUSH2 0x1074 JUMP JUMPDEST SWAP1 POP SWAP2 SWAP1 POP JUMP JUMPDEST PUSH2 0x1208 DUP2 PUSH2 0x11ED JUMP JUMPDEST DUP3 MSTORE POP POP JUMP JUMPDEST PUSH1 0x0 PUSH1 0x20 DUP3 ADD SWAP1 POP PUSH2 0x1223 PUSH1 0x0 DUP4 ADD DUP5 PUSH2 0x11FF JUMP JUMPDEST SWAP3 SWAP2 POP POP JUMP JUMPDEST PUSH1 0x0 DUP1 PUSH1 0x0 PUSH1 0x60 DUP5 DUP7 SUB SLT ISZERO PUSH2 0x1242 JUMPI PUSH2 0x1241 PUSH2 0xFAF JUMP JUMPDEST JUMPDEST PUSH1 0x0 PUSH2 0x1250 DUP7 DUP3 DUP8 ADD PUSH2 0x112F JUMP JUMPDEST SWAP4 POP POP PUSH1 0x20 PUSH2 0x1261 DUP7 DUP3 DUP8 ADD PUSH2 0x112F JUMP JUMPDEST SWAP3 POP POP PUSH1 0x40 PUSH2 0x1272 DUP7 DUP3 DUP8 ADD PUSH2 0x112F JUMP JUMPDEST SWAP2 POP POP SWAP3 POP SWAP3 POP SWAP3 JUMP JUMPDEST PUSH2 0x1285 DUP2 PUSH2 0x11ED JUMP JUMPDEST DUP2 EQ PUSH2 0x1290 JUMPI PUSH1 0x0 DUP1 REVERT JUMPDEST POP JUMP JUMPDEST PUSH1 0x0 DUP2 CALLDATALOAD SWAP1 POP PUSH2 0x12A2 DUP2 PUSH2 0x127C JUMP JUMPDEST SWAP3 SWAP2 POP POP JUMP JUMPDEST PUSH1 0x0 DUP1 REVERT JUMPDEST PUSH1 0x0 PUSH1 0x1F NOT PUSH1 0x1F DUP4 ADD AND SWAP1 POP SWAP2 SWAP1 POP JUMP JUMPDEST PUSH32 0x4E487B7100000000000000000000000000000000000000000000000000000000 PUSH1 0x0 MSTORE PUSH1 0x41 PUSH1 0x4 MSTORE PUSH1 0x24 PUSH1 0x0 REVERT JUMPDEST PUSH2 0x12F6 DUP3 PUSH2 0x12AD JUMP JUMPDEST DUP2 ADD DUP2 DUP2 LT PUSH8 0xFFFFFFFFFFFFFFFF DUP3 GT OR ISZERO PUSH2 0x1315 JUMPI PUSH2 0x1314 PUSH2 0x12BE JUMP JUMPDEST JUMPDEST DUP1 PUSH1 0x40 MSTORE POP POP POP JUMP JUMPDEST PUSH1 0x0 PUSH2 0x1328 PUSH2 0xFA5 JUMP JUMPDEST SWAP1 POP PUSH2 0x1334 DUP3 DUP3 PUSH2 0x12ED JUMP JUMPDEST SWAP2 SWAP1 POP JUMP JUMPDEST PUSH1 0x0 PUSH8 0xFFFFFFFFFFFFFFFF DUP3 GT ISZERO PUSH2 0x1354 JUMPI PUSH2 0x1353 PUSH2 0x12BE JUMP JUMPDEST JUMPDEST PUSH1 0x20 DUP3 MUL SWAP1 POP PUSH1 0x20 DUP2 ADD SWAP1 POP SWAP2 SWAP1 POP JUMP JUMPDEST PUSH1 0x0 DUP1 REVERT JUMPDEST PUSH1 0x0 PUSH2 0x137D PUSH2 0x1378 DUP5 PUSH2 0x1339 JUMP JUMPDEST PUSH2 0x131E JUMP JUMPDEST SWAP1 POP DUP1 DUP4 DUP3 MSTORE PUSH1 0x20 DUP3 ADD SWAP1 POP PUSH1 0x20 DUP5 MUL DUP4 ADD DUP6 DUP2 GT ISZERO PUSH2 0x13A0 JUMPI PUSH2 0x139F PUSH2 0x1365 JUMP JUMPDEST JUMPDEST DUP4 JUMPDEST DUP2 DUP2 LT ISZERO PUSH2 0x13C9 JUMPI DUP1 PUSH2 0x13B5 DUP9 DUP3 PUSH2 0x112F JUMP JUMPDEST DUP5 MSTORE PUSH1 0x20 DUP5 ADD SWAP4 POP POP PUSH1 0x20 DUP2 ADD SWAP1 POP PUSH2 0x13A2 JUMP JUMPDEST POP POP POP SWAP4 SWAP3 POP POP POP JUMP JUMPDEST PUSH1 0x0 DUP3 PUSH1 0x1F DUP4 ADD SLT PUSH2 0x13E8 JUMPI PUSH2 0x13E7 PUSH2 0x12A8 JUMP JUMPDEST JUMPDEST DUP2 CALLDATALOAD PUSH2 0x13F8 DUP5 DUP3 PUSH1 0x20 DUP7 ADD PUSH2 0x136A JUMP JUMPDEST SWAP2 POP POP SWAP3 SWAP2 POP POP JUMP JUMPDEST PUSH1 0x0 DUP1 REVERT JUMPDEST PUSH1 0x0 PUSH8 0xFFFFFFFFFFFFFFFF DUP3 GT ISZERO PUSH2 0x1421 JUMPI PUSH2 0x1420 PUSH2 0x12BE JUMP JUMPDEST JUMPDEST PUSH2 0x142A DUP3 PUSH2 0x12AD JUMP JUMPDEST SWAP1 POP PUSH1 0x20 DUP2 ADD SWAP1 POP SWAP2 SWAP1 POP JUMP JUMPDEST DUP3 DUP2 DUP4 CALLDATACOPY PUSH1 0x0 DUP4 DUP4 ADD MSTORE POP POP POP JUMP JUMPDEST PUSH1 0x0 PUSH2 0x1459 PUSH2 0x1454 DUP5 PUSH2 0x1406 JUMP JUMPDEST PUSH2 0x131E JUMP JUMPDEST SWAP1 POP DUP3 DUP2 MSTORE PUSH1 0x20 DUP2 ADD DUP5 DUP5 DUP5 ADD GT ISZERO PUSH2 0x1475 JUMPI PUSH2 0x1474 PUSH2 0x1401 JUMP JUMPDEST JUMPDEST PUSH2 0x1480 DUP5 DUP3 DUP6 PUSH2 0x1437 JUMP JUMPDEST POP SWAP4 SWAP3 POP POP POP JUMP JUMPDEST PUSH1 0x0 DUP3 PUSH1 0x1F DUP4 ADD SLT PUSH2 0x149D JUMPI PUSH2 0x149C PUSH2 0x12A8 JUMP JUMPDEST JUMPDEST DUP2 CALLDATALOAD PUSH2 0x14AD DUP5 DUP3 PUSH1 0x20 DUP7 ADD PUSH2 0x1446 JUMP JUMPDEST SWAP2 POP POP SWAP3 SWAP2 POP POP JUMP JUMPDEST PUSH1 0x0 DUP1 PUSH1 0x0 DUP1 PUSH1 0x0 PUSH1 0xA0 DUP7 DUP9 SUB SLT ISZERO PUSH2 0x14D2 JUMPI PUSH2 0x14D1 PUSH2 0xFAF JUMP JUMPDEST JUMPDEST PUSH1 0x0 PUSH2 0x14E0 DUP9 DUP3 DUP10 ADD PUSH2 0x1293 JUMP JUMPDEST SWAP6 POP POP PUSH1 0x20 PUSH2 0x14F1 DUP9 DUP3 DUP10 ADD PUSH2 0x1293 JUMP JUMPDEST SWAP5 POP POP PUSH1 0x40 DUP7 ADD CALLDATALOAD PUSH8 0xFFFFFFFFFFFFFFFF DUP2 GT ISZERO PUSH2 0x1512 JUMPI PUSH2 0x1511 PUSH2 0xFB4 JUMP JUMPDEST JUMPDEST PUSH2 0x151E DUP9 DUP3 DUP10 ADD PUSH2 0x13D3 JUMP JUMPDEST SWAP4 POP POP PUSH1 0x60 DUP7 ADD CALLDATALOAD PUSH8 0xFFFFFFFFFFFFFFFF DUP2 GT ISZERO PUSH2 0x153F JUMPI PUSH2 0x153E PUSH2 0xFB4 JUMP JUMPDEST JUMPDEST PUSH2 0x154B DUP9 DUP3 DUP10 ADD PUSH2 0x13D3 JUMP JUMPDEST SWAP3 POP POP PUSH1 0x80 DUP7 ADD CALLDATALOAD PUSH8 0xFFFFFFFFFFFFFFFF DUP2 GT ISZERO PUSH2 0x156C JUMPI PUSH2 0x156B PUSH2 0xFB4 JUMP JUMPDEST JUMPDEST PUSH2 0x1578 DUP9 DUP3 DUP10 ADD PUSH2 0x1488 JUMP JUMPDEST SWAP2 POP POP SWAP3 SWAP6 POP SWAP3 SWAP6 SWAP1 SWAP4 POP JUMP JUMPDEST PUSH2 0x158E DUP2 PUSH2 0xFB9 JUMP JUMPDEST DUP3 MSTORE POP POP JUMP JUMPDEST PUSH1 0x0 PUSH1 0x20 DUP3 ADD SWAP1 POP PUSH2 0x15A9 PUSH1 0x0 DUP4 ADD DUP5 PUSH2 0x1585 JUMP JUMPDEST SWAP3 SWAP2 POP POP JUMP JUMPDEST PUSH2 0x15B8 DUP2 PUSH2 0x110E JUMP JUMPDEST DUP3 MSTORE POP POP JUMP JUMPDEST PUSH1 0x0 PUSH1 0xA0 DUP3 ADD SWAP1 POP PUSH2 0x15D3 PUSH1 0x0 DUP4 ADD DUP9 PUSH2 0x15AF JUMP JUMPDEST PUSH2 0x15E0 PUSH1 0x20 DUP4 ADD DUP8 PUSH2 0x11FF JUMP JUMPDEST PUSH2 0x15ED PUSH1 0x40 DUP4 ADD DUP7 PUSH2 0x15AF JUMP JUMPDEST PUSH2 0x15FA PUSH1 0x60 DUP4 ADD DUP6 PUSH2 0x15AF JUMP JUMPDEST PUSH2 0x1607 PUSH1 0x80 DUP4 ADD DUP5 PUSH2 0x104A JUMP JUMPDEST SWAP7 SWAP6 POP POP POP POP POP POP JUMP JUMPDEST PUSH1 0x0 DUP1 PUSH1 0x0 DUP1 PUSH1 0x0 PUSH1 0xA0 DUP7 DUP9 SUB SLT ISZERO PUSH2 0x162D JUMPI PUSH2 0x162C PUSH2 0xFAF JUMP JUMPDEST JUMPDEST PUSH1 0x0 PUSH2 0x163B DUP9 DUP3 DUP10 ADD PUSH2 0x1293 JUMP JUMPDEST SWAP6 POP POP PUSH1 0x20 PUSH2 0x164C DUP9 DUP3 DUP10 ADD PUSH2 0x1293 JUMP JUMPDEST SWAP5 POP POP PUSH1 0x40 PUSH2 0x165D DUP9 DUP3 DUP10 ADD PUSH2 0x112F JUMP JUMPDEST SWAP4 POP POP PUSH1 0x60 PUSH2 0x166E DUP9 DUP3 DUP10 ADD PUSH2 0x112F JUMP JUMPDEST SWAP3 POP POP PUSH1 0x80 DUP7 ADD CALLDATALOAD PUSH8 0xFFFFFFFFFFFFFFFF DUP2 GT ISZERO PUSH2 0x168F JUMPI PUSH2 0x168E PUSH2 0xFB4 JUMP JUMPDEST JUMPDEST PUSH2 0x169B DUP9 DUP3 DUP10 ADD PUSH2 0x1488 JUMP JUMPDEST SWAP2 POP POP SWAP3 SWAP6 POP SWAP3 SWAP6 SWAP1 SWAP4 POP JUMP JUMPDEST PUSH1 0x0 PUSH1 0x20 DUP3 DUP5 SUB SLT ISZERO PUSH2 0x16BE JUMPI PUSH2 0x16BD PUSH2 0xFAF JUMP JUMPDEST JUMPDEST PUSH1 0x0 PUSH2 0x16CC DUP5 DUP3 DUP6 ADD PUSH2 0x1293 JUMP JUMPDEST SWAP2 POP POP SWAP3 SWAP2 POP POP JUMP JUMPDEST PUSH1 0x0 DUP3 DUP3 MSTORE PUSH1 0x20 DUP3 ADD SWAP1 POP SWAP3 SWAP2 POP POP JUMP JUMPDEST PUSH32 0x4E6F74207468652073656C6C6572000000000000000000000000000000000000 PUSH1 0x0 DUP3 ADD MSTORE POP JUMP JUMPDEST PUSH1 0x0 PUSH2 0x171C PUSH1 0xE DUP4 PUSH2 0x16D5 JUMP JUMPDEST SWAP2 POP PUSH2 0x1727 DUP3 PUSH2 0x16E6 JUMP JUMPDEST PUSH1 0x20 DUP3 ADD SWAP1 POP SWAP2 SWAP1 POP JUMP JUMPDEST PUSH1 0x0 PUSH1 0x20 DUP3 ADD SWAP1 POP DUP2 DUP2 SUB PUSH1 0x0 DUP4 ADD MSTORE PUSH2 0x174B DUP2 PUSH2 0x170F JUMP JUMPDEST SWAP1 POP SWAP2 SWAP1 POP JUMP JUMPDEST PUSH32 0x4C697374696E67206E6F74206163746976650000000000000000000000000000 PUSH1 0x0 DUP3 ADD MSTORE POP JUMP JUMPDEST PUSH1 0x0 PUSH2 0x1788 PUSH1 0x12 DUP4 PUSH2 0x16D5 JUMP JUMPDEST SWAP2 POP PUSH2 0x1793 DUP3 PUSH2 0x1752 JUMP JUMPDEST PUSH1 0x20 DUP3 ADD SWAP1 POP SWAP2 SWAP1 POP JUMP JUMPDEST PUSH1 0x0 PUSH1 0x20 DUP3 ADD SWAP1 POP DUP2 DUP2 SUB PUSH1 0x0 DUP4 ADD MSTORE PUSH2 0x17B7 DUP2 PUSH2 0x177B JUMP JUMPDEST SWAP1 POP SWAP2 SWAP1 POP JUMP JUMPDEST PUSH1 0x0 DUP3 DUP3 MSTORE PUSH1 0x20 DUP3 ADD SWAP1 POP SWAP3 SWAP2 POP POP JUMP JUMPDEST POP JUMP JUMPDEST PUSH1 0x0 PUSH2 0x17DF PUSH1 0x0 DUP4 PUSH2 0x17BE JUMP JUMPDEST SWAP2 POP PUSH2 0x17EA DUP3 PUSH2 0x17CF JUMP JUMPDEST PUSH1 0x0 DUP3 ADD SWAP1 POP SWAP2 SWAP1 POP JUMP JUMPDEST PUSH1 0x0 PUSH1 0xA0 DUP3 ADD SWAP1 POP PUSH2 0x180A PUSH1 0x0 DUP4 ADD DUP8 PUSH2 0x11FF JUMP JUMPDEST PUSH2 0x1817 PUSH1 0x20 DUP4 ADD DUP7 PUSH2 0x11FF JUMP JUMPDEST PUSH2 0x1824 PUSH1 0x40 DUP4 ADD DUP6 PUSH2 0x15AF JUMP JUMPDEST PUSH2 0x1831 PUSH1 0x60 DUP4 ADD DUP5 PUSH2 0x15AF JUMP JUMPDEST DUP2 DUP2 SUB PUSH1 0x80 DUP4 ADD MSTORE PUSH2 0x1842 DUP2 PUSH2 0x17D2 JUMP JUMPDEST SWAP1 POP SWAP6 SWAP5 POP POP POP POP POP JUMP JUMPDEST PUSH1 0x0 PUSH1 0x20 DUP3 ADD SWAP1 POP PUSH2 0x1862 PUSH1 0x0 DUP4 ADD DUP5 PUSH2 0x15AF JUMP JUMPDEST SWAP3 SWAP2 POP POP JUMP JUMPDEST PUSH32 0x496E73756666696369656E7420616D6F756E74206F66206C697374696E677300 PUSH1 0x0 DUP3 ADD MSTORE POP JUMP JUMPDEST PUSH1 0x0 PUSH2 0x189E PUSH1 0x1F DUP4 PUSH2 0x16D5 JUMP JUMPDEST SWAP2 POP PUSH2 0x18A9 DUP3 PUSH2 0x1868 JUMP JUMPDEST PUSH1 0x20 DUP3 ADD SWAP1 POP SWAP2 SWAP1 POP JUMP JUMPDEST PUSH1 0x0 PUSH1 0x20 DUP3 ADD SWAP1 POP DUP2 DUP2 SUB PUSH1 0x0 DUP4 ADD MSTORE PUSH2 0x18CD DUP2 PUSH2 0x1891 JUMP JUMPDEST SWAP1 POP SWAP2 SWAP1 POP JUMP JUMPDEST PUSH32 0x4E487B7100000000000000000000000000000000000000000000000000000000 PUSH1 0x0 MSTORE PUSH1 0x11 PUSH1 0x4 MSTORE PUSH1 0x24 PUSH1 0x0 REVERT JUMPDEST PUSH1 0x0 PUSH2 0x190E DUP3 PUSH2 0x110E JUMP JUMPDEST SWAP2 POP PUSH2 0x1919 DUP4 PUSH2 0x110E JUMP JUMPDEST SWAP3 POP DUP3 DUP3 MUL PUSH2 0x1927 DUP2 PUSH2 0x110E JUMP JUMPDEST SWAP2 POP DUP3 DUP3 DIV DUP5 EQ DUP4 ISZERO OR PUSH2 0x193E JUMPI PUSH2 0x193D PUSH2 0x18D4 JUMP JUMPDEST JUMPDEST POP SWAP3 SWAP2 POP POP JUMP JUMPDEST PUSH1 0x0 PUSH1 0x40 DUP3 ADD SWAP1 POP PUSH2 0x195A PUSH1 0x0 DUP4 ADD DUP6 PUSH2 0x11FF JUMP JUMPDEST PUSH2 0x1967 PUSH1 0x20 DUP4 ADD DUP5 PUSH2 0x11FF JUMP JUMPDEST SWAP4 SWAP3 POP POP POP JUMP JUMPDEST PUSH1 0x0 DUP2 MLOAD SWAP1 POP PUSH2 0x197D DUP2 PUSH2 0x1118 JUMP JUMPDEST SWAP3 SWAP2 POP POP JUMP JUMPDEST PUSH1 0x0 PUSH1 0x20 DUP3 DUP5 SUB SLT ISZERO PUSH2 0x1999 JUMPI PUSH2 0x1998 PUSH2 0xFAF JUMP JUMPDEST JUMPDEST PUSH1 0x0 PUSH2 0x19A7 DUP5 DUP3 DUP6 ADD PUSH2 0x196E JUMP JUMPDEST SWAP2 POP POP SWAP3 SWAP2 POP POP JUMP JUMPDEST PUSH32 0x496E73756666696369656E7420616C6C6F77616E636500000000000000000000 PUSH1 0x0 DUP3 ADD MSTORE POP JUMP JUMPDEST PUSH1 0x0 PUSH2 0x19E6 PUSH1 0x16 DUP4 PUSH2 0x16D5 JUMP JUMPDEST SWAP2 POP PUSH2 0x19F1 DUP3 PUSH2 0x19B0 JUMP JUMPDEST PUSH1 0x20 DUP3 ADD SWAP1 POP SWAP2 SWAP1 POP JUMP JUMPDEST PUSH1 0x0 PUSH1 0x20 DUP3 ADD SWAP1 POP DUP2 DUP2 SUB PUSH1 0x0 DUP4 ADD MSTORE PUSH2 0x1A15 DUP2 PUSH2 0x19D9 JUMP JUMPDEST SWAP1 POP SWAP2 SWAP1 POP JUMP JUMPDEST PUSH1 0x0 PUSH1 0x60 DUP3 ADD SWAP1 POP PUSH2 0x1A31 PUSH1 0x0 DUP4 ADD DUP7 PUSH2 0x11FF JUMP JUMPDEST PUSH2 0x1A3E PUSH1 0x20 DUP4 ADD DUP6 PUSH2 0x11FF JUMP JUMPDEST PUSH2 0x1A4B PUSH1 0x40 DUP4 ADD DUP5 PUSH2 0x15AF JUMP JUMPDEST SWAP5 SWAP4 POP POP POP POP JUMP JUMPDEST PUSH2 0x1A5C DUP2 PUSH2 0x103E JUMP JUMPDEST DUP2 EQ PUSH2 0x1A67 JUMPI PUSH1 0x0 DUP1 REVERT JUMPDEST POP JUMP JUMPDEST PUSH1 0x0 DUP2 MLOAD SWAP1 POP PUSH2 0x1A79 DUP2 PUSH2 0x1A53 JUMP JUMPDEST SWAP3 SWAP2 POP POP JUMP JUMPDEST PUSH1 0x0 PUSH1 0x20 DUP3 DUP5 SUB SLT ISZERO PUSH2 0x1A95 JUMPI PUSH2 0x1A94 PUSH2 0xFAF JUMP JUMPDEST JUMPDEST PUSH1 0x0 PUSH2 0x1AA3 DUP5 DUP3 DUP6 ADD PUSH2 0x1A6A JUMP JUMPDEST SWAP2 POP POP SWAP3 SWAP2 POP POP JUMP JUMPDEST PUSH1 0x0 PUSH2 0x1AB7 DUP3 PUSH2 0x110E JUMP JUMPDEST SWAP2 POP PUSH2 0x1AC2 DUP4 PUSH2 0x110E JUMP JUMPDEST SWAP3 POP DUP3 DUP3 SUB SWAP1 POP DUP2 DUP2 GT ISZERO PUSH2 0x1ADA JUMPI PUSH2 0x1AD9 PUSH2 0x18D4 JUMP JUMPDEST JUMPDEST SWAP3 SWAP2 POP POP JUMP JUMPDEST PUSH1 0x0 PUSH1 0xA0 DUP3 ADD SWAP1 POP PUSH2 0x1AF5 PUSH1 0x0 DUP4 ADD DUP9 PUSH2 0x15AF JUMP JUMPDEST PUSH2 0x1B02 PUSH1 0x20 DUP4 ADD DUP8 PUSH2 0x11FF JUMP JUMPDEST PUSH2 0x1B0F PUSH1 0x40 DUP4 ADD DUP7 PUSH2 0x11FF JUMP JUMPDEST PUSH2 0x1B1C PUSH1 0x60 DUP4 ADD DUP6 PUSH2 0x15AF JUMP JUMPDEST PUSH2 0x1B29 PUSH1 0x80 DUP4 ADD DUP5 PUSH2 0x15AF JUMP JUMPDEST SWAP7 SWAP6 POP POP POP POP POP POP JUMP JUMPDEST PUSH1 0x0 PUSH1 0x40 DUP3 ADD SWAP1 POP PUSH2 0x1B48 PUSH1 0x0 DUP4 ADD DUP6 PUSH2 0x11FF JUMP JUMPDEST PUSH2 0x1B55 PUSH1 0x20 DUP4 ADD DUP5 PUSH2 0x15AF JUMP JUMPDEST SWAP4 SWAP3 POP POP POP JUMP JUMPDEST PUSH32 0x496E73756666696369656E742062616C616E6365000000000000000000000000 PUSH1 0x0 DUP3 ADD MSTORE POP JUMP JUMPDEST PUSH1 0x0 PUSH2 0x1B92 PUSH1 0x14 DUP4 PUSH2 0x16D5 JUMP JUMPDEST SWAP2 POP PUSH2 0x1B9D DUP3 PUSH2 0x1B5C JUMP JUMPDEST PUSH1 0x20 DUP3 ADD SWAP1 POP SWAP2 SWAP1 POP JUMP JUMPDEST PUSH1 0x0 PUSH1 0x20 DUP3 ADD SWAP1 POP DUP2 DUP2 SUB PUSH1 0x0 DUP4 ADD MSTORE PUSH2 0x1BC1 DUP2 PUSH2 0x1B85 JUMP JUMPDEST SWAP1 POP SWAP2 SWAP1 POP JUMP JUMPDEST PUSH32 0x4E6F7420617070726F7665640000000000000000000000000000000000000000 PUSH1 0x0 DUP3 ADD MSTORE POP JUMP JUMPDEST PUSH1 0x0 PUSH2 0x1BFE PUSH1 0xC DUP4 PUSH2 0x16D5 JUMP JUMPDEST SWAP2 POP PUSH2 0x1C09 DUP3 PUSH2 0x1BC8 JUMP JUMPDEST PUSH1 0x20 DUP3 ADD SWAP1 POP SWAP2 SWAP1 POP JUMP JUMPDEST PUSH1 0x0 PUSH1 0x20 DUP3 ADD SWAP1 POP DUP2 DUP2 SUB PUSH1 0x0 DUP4 ADD MSTORE PUSH2 0x1C2D DUP2 PUSH2 0x1BF1 JUMP JUMPDEST SWAP1 POP SWAP2 SWAP1 POP JUMP JUMPDEST PUSH1 0x0 PUSH2 0x1C3F DUP3 PUSH2 0x110E JUMP JUMPDEST SWAP2 POP PUSH32 0xFFFFFFFFFFFFFFFFFFFFFFFFFFFFFFFFFFFFFFFFFFFFFFFFFFFFFFFFFFFFFFFF DUP3 SUB PUSH2 0x1C71 JUMPI PUSH2 0x1C70 PUSH2 0x18D4 JUMP JUMPDEST JUMPDEST PUSH1 0x1 DUP3 ADD SWAP1 POP SWAP2 SWAP1 POP JUMP JUMPDEST PUSH1 0x0 PUSH1 0xA0 DUP3 ADD SWAP1 POP PUSH2 0x1C91 PUSH1 0x0 DUP4 ADD DUP9 PUSH2 0x15AF JUMP JUMPDEST PUSH2 0x1C9E PUSH1 0x20 DUP4 ADD DUP8 PUSH2 0x15AF JUMP JUMPDEST PUSH2 0x1CAB PUSH1 0x40 DUP4 ADD DUP7 PUSH2 0x11FF JUMP JUMPDEST PUSH2 0x1CB8 PUSH1 0x60 DUP4 ADD DUP6 PUSH2 0x15AF JUMP JUMPDEST PUSH2 0x1CC5 PUSH1 0x80 DUP4 ADD DUP5 PUSH2 0x15AF JUMP JUMPDEST SWAP7 SWAP6 POP POP POP POP POP POP JUMP INVALID LOG2 PUSH5 0x6970667358 0x22 SLT KECCAK256 GASLIMIT PUSH3 0x5E72F0 ADDMOD 0x28 0xAE 0xC5 SWAP5 0xD6 0xAE PUSH2 0xD38 JUMPI DUP3 0x4D MSIZE 0xE7 0xD4 PUSH17 0xD373CA6F51233498312E64736F6C634300 ADDMOD SHR STOP CALLER "},"methodIdentifiers":{"cancelListing(uint256)":"305a67a8","carbonCredit()":"637bf795","createListing(uint256,uint256,uint256)":"b03053b6","listings(uint256)":"de74e57b","onERC1155BatchReceived(address,address,uint256[],uint256[],bytes)":"bc197c81","onERC1155Received(address,address,uint256,uint256,bytes)":"f23a6e61","owner()":"8da5cb5b","purchase(uint256,uint256)":"70876c98","renounceOwnership()":"715018a6","supportsInterface(bytes4)":"01ffc9a7","transferOwnership(address)":"f2fde38b","usdcToken()":"11eac855"}}}}}