{
  "_format": "hh-sol-artifact-1",
  "contractName": "CarbonCredit",
  "sourceName": "contracts/CarbonCredit.sol",
  "abi": [
    {
      "inputs": [
        {
          "internalType": "address",
          "name": "_usdcToken",
          "type": "address"
        }
      ],
      "stateMutability": "nonpayable",
      "type": "constructor"
    },
    {
      "inputs": [
        {
          "internalType": "address",
          "name": "sender",
          "type": "address"
        },
        {
          "internalType": "uint256",
          "name": "balance",
          "type": "uint256"
        },
        {
          "internalType": "uint256",
          "name": "needed",
          "type": "uint256"
        },
        {
          "internalType": "uint256",
          "name": "tokenId",
          "type": "uint256"
        }
      ],
      "name": "ERC1155InsufficientBalance",
      "type": "error"
    },
    {
      "inputs": [
        {
          "internalType": "address",
          "name": "approver",
          "type": "address"
        }
      ],
      "name": "ERC1155InvalidApprover",
      "type": "error"
    },
    {
      "inputs": [
        {
          "internalType": "uint256",
          "name": "idsLength",
          "type": "uint256"
        },
        {
          "internalType": "uint256",
          "name": "valuesLength",
          "type": "uint256"
        }
      ],
      "name": "ERC1155InvalidArrayLength",
      "type": "error"
    },
    {
      "inputs": [
        {
          "internalType": "address",
          "name": "operator",
          "type": "address"
        }
      ],
      "name": "ERC1155InvalidOperator",
      "type": "error"
    },
    {
      "inputs": [
        {
          "internalType": "address",
          "name": "receiver",
          "type": "address"
        }
      ],
      "name": "ERC1155InvalidReceiver",
      "type": "error"
    },
    {
      "inputs": [
        {
          "internalType": "address",
          "name": "sender",
          "type": "address"
        }
      ],
      "name": "ERC1155InvalidSender",
      "type": "error"
    },
    {
      "inputs": [
        {
          "internalType": "address",
          "name": "operator",
          "type": "address"
        },
        {
          "internalType": "address",
          "name": "owner",
          "type": "address"
        }
      ],
      "name": "ERC1155MissingApprovalForAll",
      "type": "error"
    },
    {
      "inputs": [
        {
          "internalType": "address",
          "name": "owner",
          "type": "address"
        }
      ],
      "name": "OwnableInvalidOwner",
      "type": "error"
    },
    {
      "inputs": [
        {
          "internalType": "address",
          "name": "account",
          "type": "address"
        }
      ],
      "name": "OwnableUnauthorizedAccount",
      "type": "error"
    },
    {
      "anonymous": false,
      "inputs": [
        {
          "indexed": true,
          "internalType": "address",
          "name": "account",
          "type": "address"
        },
        {
          "indexed": true,
          "internalType": "address",
          "name": "operator",
          "type": "address"
        },
        {
          "indexed": false,
          "internalType": "bool",
          "name": "approved",
          "type": "bool"
        }
      ],
      "name": "ApprovalForAll",
      "type": "event"
    },
    {
      "anonymous": false,
      "inputs": [
        {
          "indexed": false,
          "internalType": "uint256",
          "name": "tokenId",
          "type": "uint256"
        },
        {
          "indexed": false,
          "internalType": "address",
          "name": "creator",
          "type": "address"
        },
        {
          "indexed": false,
          "internalType": "string",
          "name": "projectName",
          "type": "string"
        },
        {
          "indexed": false,
          "internalType": "uint256",
          "name": "amount",
          "type": "uint256"
        },
        {
          "indexed": false,
          "internalType": "uint256",
          "name": "vintage",
          "type": "uint256"
        }
      ],
      "name": "CreditMinted",
      "type": "event"
    },
    {
      "anonymous": false,
      "inputs": [
        {
          "indexed": false,
          "internalType": "uint256",
          "name": "tokenId",
          "type": "uint256"
        },
        {
          "indexed": false,
          "internalType": "address",
          "name": "verifier",
          "type": "address"
        }
      ],
      "name": "CreditVerified",
      "type": "event"
    },
    {
      "anonymous": false,
      "inputs": [
        {
          "indexed": true,
          "internalType": "address",
          "name": "previousOwner",
          "type": "address"
        },
        {
          "indexed": true,
          "internalType": "address",
          "name": "newOwner",
          "type": "address"
        }
      ],
      "name": "OwnershipTransferred",
      "type": "event"
    },
    {
      "anonymous": false,
      "inputs": [
        {
          "indexed": true,
          "internalType": "address",
          "name": "operator",
          "type": "address"
        },
        {
          "indexed": true,
          "internalType": "address",
          "name": "from",
          "type": "address"
        },
        {
          "indexed": true,
          "internalType": "address",
          "name": "to",
          "type": "address"
        },
        {
          "indexed": false,
          "internalType": "uint256[]",
          "name": "ids",
          "type": "uint256[]"
        },
        {
          "indexed": false,
          "internalType": "uint256[]",
          "name": "values",
          "type": "uint256[]"
        }
      ],
      "name": "TransferBatch",
      "type": "event"
    },
    {
      "anonymous": false,
      "inputs": [
        {
          "indexed": true,
          "internalType": "address",
          "name": "operator",
          "type": "address"
        },
        {
          "indexed": true,
          "internalType": "address",
          "name": "from",
          "type": "address"
        },
        {
          "indexed": true,
          "internalType": "address",
          "name": "to",
          "type": "address"
        },
        {
          "indexed": false,
          "internalType": "uint256",
          "name": "id",
          "type": "uint256"
        },
        {
          "indexed": false,
          "internalType": "uint256",
          "name": "value",
          "type": "uint256"
        }
      ],
      "name": "TransferSingle",
      "type": "event"
    },
    {
      "anonymous": false,
      "inputs": [
        {
          "indexed": false,
          "internalType": "string",
          "name": "value",
          "type": "string"
        },
        {
          "indexed": true,
          "internalType": "uint256",
          "name": "id",
          "type": "uint256"
        }
      ],
      "name": "URI",
      "type": "event"
    },
    {
      "inputs": [
        {
          "internalType": "address",
          "name": "verifier",
          "type": "address"
        }
      ],
      "name": "addVerifier",
      "outputs": [],
      "stateMutability": "nonpayable",
      "type": "function"
    },
    {
      "inputs": [
        {
          "internalType": "address",
          "name": "account",
          "type": "address"
        },
        {
          "internalType": "uint256",
          "name": "id",
          "type": "uint256"
        }
      ],
      "name": "balanceOf",
      "outputs": [
        {
          "internalType": "uint256",
          "name": "",
          "type": "uint256"
        }
      ],
      "stateMutability": "view",
      "type": "function"
    },
    {
      "inputs": [
        {
          "internalType": "address[]",
          "name": "accounts",
          "type": "address[]"
        },
        {
          "internalType": "uint256[]",
          "name": "ids",
          "type": "uint256[]"
        }
      ],
      "name": "balanceOfBatch",
      "outputs": [
        {
          "internalType": "uint256[]",
          "name": "",
          "type": "uint256[]"
        }
      ],
      "stateMutability": "view",
      "type": "function"
    },
    {
      "inputs": [
        {
          "internalType": "uint256",
          "name": "",
          "type": "uint256"
        }
      ],
      "name": "credits",
      "outputs": [
        {
          "internalType": "string",
          "name": "projectName",
          "type": "string"
        },
        {
          "internalType": "string",
          "name": "location",
          "type": "string"
        },
        {
          "internalType": "uint256",
          "name": "totalSupply",
          "type": "uint256"
        },
        {
          "internalType": "uint256",
          "name": "vintage",
          "type": "uint256"
        },
        {
          "internalType": "enum CarbonCredit.VerificationStandard",
          "name": "verificationStandard",
          "type": "uint8"
        },
        {
          "internalType": "string",
          "name": "metadataURI",
          "type": "string"
        },
        {
          "internalType": "bool",
          "name": "isVerified",
          "type": "bool"
        },
        {
          "internalType": "uint256",
          "name": "price",
          "type": "uint256"
        }
      ],
      "stateMutability": "view",
      "type": "function"
    },
    {
      "inputs": [
        {
          "internalType": "address",
          "name": "account",
          "type": "address"
        },
        {
          "internalType": "address",
          "name": "operator",
          "type": "address"
        }
      ],
      "name": "isApprovedForAll",
      "outputs": [
        {
          "internalType": "bool",
          "name": "",
          "type": "bool"
        }
      ],
      "stateMutability": "view",
      "type": "function"
    },
    {
      "inputs": [
        {
          "internalType": "string",
          "name": "projectName",
          "type": "string"
        },
        {
          "internalType": "string",
          "name": "location",
          "type": "string"
        },
        {
          "internalType": "uint256",
          "name": "amount",
          "type": "uint256"
        },
        {
          "internalType": "uint256",
          "name": "vintage",
          "type": "uint256"
        },
        {
          "internalType": "enum CarbonCredit.VerificationStandard",
          "name": "verificationStandard",
          "type": "uint8"
        },
        {
          "internalType": "string",
          "name": "metadataURI",
          "type": "string"
        },
        {
          "internalType": "uint256",
          "name": "price",
          "type": "uint256"
        }
      ],
      "name": "mintCredit",
      "outputs": [
        {
          "internalType": "uint256",
          "name": "",
          "type": "uint256"
        }
      ],
      "stateMutability": "nonpayable",
      "type": "function"
    },
    {
      "inputs": [],
      "name": "owner",
      "outputs": [
        {
          "internalType": "address",
          "name": "",
          "type": "address"
        }
      ],
      "stateMutability": "view",
      "type": "function"
    },
    {
      "inputs": [
        {
          "internalType": "address",
          "name": "verifier",
          "type": "address"
        }
      ],
      "name": "removeVerifier",
      "outputs": [],
      "stateMutability": "nonpayable",
      "type": "function"
    },
    {
      "inputs": [],
      "name": "renounceOwnership",
      "outputs": [],
      "stateMutability": "nonpayable",
      "type": "function"
    },
    {
      "inputs": [
        {
          "internalType": "address",
          "name": "from",
          "type": "address"
        },
        {
          "internalType": "address",
          "name": "to",
          "type": "address"
        },
        {
          "internalType": "uint256[]",
          "name": "ids",
          "type": "uint256[]"
        },
        {
          "internalType": "uint256[]",
          "name": "values",
          "type": "uint256[]"
        },
        {
          "internalType": "bytes",
          "name": "data",
          "type": "bytes"
        }
      ],
      "name": "safeBatchTransferFrom",
      "outputs": [],
      "stateMutability": "nonpayable",
      "type": "function"
    },
    {
      "inputs": [
        {
          "internalType": "address",
          "name": "from",
          "type": "address"
        },
        {
          "internalType": "address",
          "name": "to",
          "type": "address"
        },
        {
          "internalType": "uint256",
          "name": "id",
          "type": "uint256"
        },
        {
          "internalType": "uint256",
          "name": "value",
          "type": "uint256"
        },
        {
          "internalType": "bytes",
          "name": "data",
          "type": "bytes"
        }
      ],
      "name": "safeTransferFrom",
      "outputs": [],
      "stateMutability": "nonpayable",
      "type": "function"
    },
    {
      "inputs": [
        {
          "internalType": "address",
          "name": "operator",
          "type": "address"
        },
        {
          "internalType": "bool",
          "name": "approved",
          "type": "bool"
        }
      ],
      "name": "setApprovalForAll",
      "outputs": [],
      "stateMutability": "nonpayable",
      "type": "function"
    },
    {
      "inputs": [
        {
          "internalType": "bytes4",
          "name": "interfaceId",
          "type": "bytes4"
        }
      ],
      "name": "supportsInterface",
      "outputs": [
        {
          "internalType": "bool",
          "name": "",
          "type": "bool"
        }
      ],
      "stateMutability": "view",
      "type": "function"
    },
    {
      "inputs": [
        {
          "internalType": "address",
          "name": "newOwner",
          "type": "address"
        }
      ],
      "name": "transferOwnership",
      "outputs": [],
      "stateMutability": "nonpayable",
      "type": "function"
    },
    {
      "inputs": [
        {
          "internalType": "uint256",
          "name": "",
          "type": "uint256"
        }
      ],
      "name": "uri",
      "outputs": [
        {
          "internalType": "string",
          "name": "",
          "type": "string"
        }
      ],
      "stateMutability": "view",
      "type": "function"
    },
    {
      "inputs": [],
      "name": "usdcToken",
      "outputs": [
        {
          "internalType": "address",
          "name": "",
          "type": "address"
        }
      ],
      "stateMutability": "view",
      "type": "function"
    },
    {
      "inputs": [
        {
          "internalType": "address",
          "name": "",
          "type": "address"
        }
      ],
      "name": "verifiers",
      "outputs": [
        {
          "internalType": "bool",
          "name": "",
          "type": "bool"
        }
      ],
      "stateMutability": "view",
      "type": "function"
    },
    {
      "inputs": [
        {
          "internalType": "uint256",
          "name": "tokenId",
          "type": "uint256"
        }
      ],
      "name": "verifyCredit",
      "outputs": [],
      "stateMutability": "nonpayable",
      "type": "function"
    }
  ],
  "bytecode": "0x608060405234801561001057600080fd5b506040516135f23803806135f2833981810160405281019061003291906102b0565b33604051806020016040528060008152506100528161017460201b60201c565b50600073ffffffffffffffffffffffffffffffffffffffff168173ffffffffffffffffffffffffffffffffffffffff16036100c55760006040517f1e4fbdf70000000000000000000000000000000000000000000000000000000081526004016100bc91906102ec565b60405180910390fd5b6100d48161018760201b60201c565b5080600560006101000a81548173ffffffffffffffffffffffffffffffffffffffff021916908373ffffffffffffffffffffffffffffffffffffffff1602179055506001600760003373ffffffffffffffffffffffffffffffffffffffff1673ffffffffffffffffffffffffffffffffffffffff16815260200190815260200160002060006101000a81548160ff02191690831515021790555050610629565b80600290816101839190610557565b5050565b6000600360009054906101000a900473ffffffffffffffffffffffffffffffffffffffff16905081600360006101000a81548173ffffffffffffffffffffffffffffffffffffffff021916908373ffffffffffffffffffffffffffffffffffffffff1602179055508173ffffffffffffffffffffffffffffffffffffffff168173ffffffffffffffffffffffffffffffffffffffff167f8be0079c531659141344cd1fd0a4f28419497f9722a3daafe3b4186f6b6457e060405160405180910390a35050565b600080fd5b600073ffffffffffffffffffffffffffffffffffffffff82169050919050565b600061027d82610252565b9050919050565b61028d81610272565b811461029857600080fd5b50565b6000815190506102aa81610284565b92915050565b6000602082840312156102c6576102c561024d565b5b60006102d48482850161029b565b91505092915050565b6102e681610272565b82525050565b600060208201905061030160008301846102dd565b92915050565b600081519050919050565b7f4e487b7100000000000000000000000000000000000000000000000000000000600052604160045260246000fd5b7f4e487b7100000000000000000000000000000000000000000000000000000000600052602260045260246000fd5b6000600282049050600182168061038857607f821691505b60208210810361039b5761039a610341565b5b50919050565b60008190508160005260206000209050919050565b60006020601f8301049050919050565b600082821b905092915050565b6000600883026104037fffffffffffffffffffffffffffffffffffffffffffffffffffffffffffffffff826103c6565b61040d86836103c6565b95508019841693508086168417925050509392505050565b6000819050919050565b6000819050919050565b600061045461044f61044a84610425565b61042f565b610425565b9050919050565b6000819050919050565b61046e83610439565b61048261047a8261045b565b8484546103d3565b825550505050565b600090565b61049761048a565b6104a2818484610465565b505050565b5b818110156104c6576104bb60008261048f565b6001810190506104a8565b5050565b601f82111561050b576104dc816103a1565b6104e5846103b6565b810160208510156104f4578190505b610508610500856103b6565b8301826104a7565b50505b505050565b600082821c905092915050565b600061052e60001984600802610510565b1980831691505092915050565b6000610547838361051d565b9150826002028217905092915050565b61056082610307565b67ffffffffffffffff81111561057957610578610312565b5b6105838254610370565b61058e8282856104ca565b600060209050601f8311600181146105c157600084156105af578287015190505b6105b9858261053b565b865550610621565b601f1984166105cf866103a1565b60005b828110156105f7578489015182556001820191506020850194506020810190506105d2565b868310156106145784890151610610601f89168261051d565b8355505b6001600288020188555050505b505050505050565b612fba806106386000396000f3fe608060405234801561001057600080fd5b50600436106101155760003560e01c80636c824487116100a2578063a22cb46511610071578063a22cb4651461030b578063ca2dfd0a14610327578063e985e9c514610343578063f242432a14610373578063f2fde38b1461038f57610115565b80636c82448714610297578063715018a6146102c75780638da5cb5b146102d15780639000b3d6146102ef57610115565b806311eac855116100e957806311eac855146101e157806314fe83f8146101ff5780631f5705731461021b5780632eb2c2d61461024b5780634e1273f41461026757610115565b8062fdd58e1461011a57806301ffc9a71461014a578063036a1c221461017a5780630e89341c146101b1575b600080fd5b610134600480360381019061012f9190611d6b565b6103ab565b6040516101419190611dba565b60405180910390f35b610164600480360381019061015f9190611e2d565b610405565b6040516101719190611e75565b60405180910390f35b610194600480360381019061018f9190611e90565b6104e7565b6040516101a8989796959493929190611fc4565b60405180910390f35b6101cb60048036038101906101c69190611e90565b6106e1565b6040516101d89190612057565b60405180910390f35b6101e9610775565b6040516101f69190612088565b60405180910390f35b61021960048036038101906102149190611e90565b61079b565b005b610235600480360381019061023091906121fd565b610892565b6040516102429190611dba565b60405180910390f35b6102656004803603810190610260919061245c565b610a31565b005b610281600480360381019061027c91906125ee565b610ad9565b60405161028e9190612724565b60405180910390f35b6102b160048036038101906102ac9190612746565b610be2565b6040516102be9190611e75565b60405180910390f35b6102cf610c02565b005b6102d9610c16565b6040516102e69190612088565b60405180910390f35b61030960048036038101906103049190612746565b610c40565b005b6103256004803603810190610320919061279f565b610ca3565b005b610341600480360381019061033c9190612746565b610cb9565b005b61035d600480360381019061035891906127df565b610d1c565b60405161036a9190611e75565b60405180910390f35b61038d6004803603810190610388919061281f565b610db0565b005b6103a960048036038101906103a49190612746565b610e58565b005b600080600083815260200190815260200160002060008473ffffffffffffffffffffffffffffffffffffffff1673ffffffffffffffffffffffffffffffffffffffff16815260200190815260200160002054905092915050565b60007fd9b67a26000000000000000000000000000000000000000000000000000000007bffffffffffffffffffffffffffffffffffffffffffffffffffffffff1916827bffffffffffffffffffffffffffffffffffffffffffffffffffffffff191614806104d057507f0e89341c000000000000000000000000000000000000000000000000000000007bffffffffffffffffffffffffffffffffffffffffffffffffffffffff1916827bffffffffffffffffffffffffffffffffffffffffffffffffffffffff1916145b806104e057506104df82610ede565b5b9050919050565b600660205280600052604060002060009150905080600001805461050a906128e5565b80601f0160208091040260200160405190810160405280929190818152602001828054610536906128e5565b80156105835780601f1061055857610100808354040283529160200191610583565b820191906000526020600020905b81548152906001019060200180831161056657829003601f168201915b505050505090806001018054610598906128e5565b80601f01602080910402602001604051908101604052809291908181526020018280546105c4906128e5565b80156106115780601f106105e657610100808354040283529160200191610611565b820191906000526020600020905b8154815290600101906020018083116105f457829003601f168201915b5050505050908060020154908060030154908060040160009054906101000a900460ff1690806005018054610645906128e5565b80601f0160208091040260200160405190810160405280929190818152602001828054610671906128e5565b80156106be5780601f10610693576101008083540402835291602001916106be565b820191906000526020600020905b8154815290600101906020018083116106a157829003601f168201915b5050505050908060060160009054906101000a900460ff16908060070154905088565b6060600280546106f0906128e5565b80601f016020809104026020016040519081016040528092919081815260200182805461071c906128e5565b80156107695780601f1061073e57610100808354040283529160200191610769565b820191906000526020600020905b81548152906001019060200180831161074c57829003601f168201915b50505050509050919050565b600560009054906101000a900473ffffffffffffffffffffffffffffffffffffffff1681565b600760003373ffffffffffffffffffffffffffffffffffffffff1673ffffffffffffffffffffffffffffffffffffffff16815260200190815260200160002060009054906101000a900460ff16610827576040517f08c379a000000000000000000000000000000000000000000000000000000000815260040161081e90612962565b60405180910390fd5b60016006600083815260200190815260200160002060060160006101000a81548160ff0219169083151502179055507ffb0eafba66d536e6069c4034f4a025380fb2178d955970896c46cbcf89ad3c348133604051610887929190612982565b60405180910390a150565b6000600460008154809291906108a7906129da565b9190505550600060045490506040518061010001604052808a81526020018981526020018881526020018781526020018660058111156108ea576108e9611f4d565b5b81526020018581526020016000151581526020018481525060066000838152602001908152602001600020600082015181600001908161092a9190612bce565b5060208201518160010190816109409190612bce565b50604082015181600201556060820151816003015560808201518160040160006101000a81548160ff021916908360058111156109805761097f611f4d565b5b021790555060a082015181600501908161099a9190612bce565b5060c08201518160060160006101000a81548160ff02191690831515021790555060e082015181600701559050506109e333828960405180602001604052806000815250610f48565b7fa21f2880a44c2d9cbb355bbee767760b7daeaddb0f54b9ec1ca0effdc163eed981338b8a8a604051610a1a959493929190612ca0565b60405180910390a180915050979650505050505050565b6000610a3b610fe1565b90508073ffffffffffffffffffffffffffffffffffffffff168673ffffffffffffffffffffffffffffffffffffffff1614158015610a805750610a7e8682610d1c565b155b15610ac45780866040517fe237d922000000000000000000000000000000000000000000000000000000008152600401610abb929190612cfa565b60405180910390fd5b610ad18686868686610fe9565b505050505050565b60608151835114610b2557815183516040517f5b059991000000000000000000000000000000000000000000000000000000008152600401610b1c929190612d23565b60405180910390fd5b6000835167ffffffffffffffff811115610b4257610b416120ad565b5b604051908082528060200260200182016040528015610b705781602001602082028036833780820191505090505b50905060005b8451811015610bd757610bad610b9582876110e190919063ffffffff16565b610ba883876110f590919063ffffffff16565b6103ab565b828281518110610bc057610bbf612d4c565b5b602002602001018181525050806001019050610b76565b508091505092915050565b60076020528060005260406000206000915054906101000a900460ff1681565b610c0a611109565b610c146000611190565b565b6000600360009054906101000a900473ffffffffffffffffffffffffffffffffffffffff16905090565b610c48611109565b6001600760008373ffffffffffffffffffffffffffffffffffffffff1673ffffffffffffffffffffffffffffffffffffffff16815260200190815260200160002060006101000a81548160ff02191690831515021790555050565b610cb5610cae610fe1565b8383611256565b5050565b610cc1611109565b6000600760008373ffffffffffffffffffffffffffffffffffffffff1673ffffffffffffffffffffffffffffffffffffffff16815260200190815260200160002060006101000a81548160ff02191690831515021790555050565b6000600160008473ffffffffffffffffffffffffffffffffffffffff1673ffffffffffffffffffffffffffffffffffffffff16815260200190815260200160002060008373ffffffffffffffffffffffffffffffffffffffff1673ffffffffffffffffffffffffffffffffffffffff16815260200190815260200160002060009054906101000a900460ff16905092915050565b6000610dba610fe1565b90508073ffffffffffffffffffffffffffffffffffffffff168673ffffffffffffffffffffffffffffffffffffffff1614158015610dff5750610dfd8682610d1c565b155b15610e435780866040517fe237d922000000000000000000000000000000000000000000000000000000008152600401610e3a929190612cfa565b60405180910390fd5b610e5086868686866113c6565b505050505050565b610e60611109565b600073ffffffffffffffffffffffffffffffffffffffff168173ffffffffffffffffffffffffffffffffffffffff1603610ed25760006040517f1e4fbdf7000000000000000000000000000000000000000000000000000000008152600401610ec99190612088565b60405180910390fd5b610edb81611190565b50565b60007f01ffc9a7000000000000000000000000000000000000000000000000000000007bffffffffffffffffffffffffffffffffffffffffffffffffffffffff1916827bffffffffffffffffffffffffffffffffffffffffffffffffffffffff1916149050919050565b600073ffffffffffffffffffffffffffffffffffffffff168473ffffffffffffffffffffffffffffffffffffffff1603610fba5760006040517f57f447ce000000000000000000000000000000000000000000000000000000008152600401610fb19190612088565b60405180910390fd5b600080610fc785856114d1565b91509150610fd9600087848487611501565b505050505050565b600033905090565b600073ffffffffffffffffffffffffffffffffffffffff168473ffffffffffffffffffffffffffffffffffffffff160361105b5760006040517f57f447ce0000000000000000000000000000000000000000000000000000000081526004016110529190612088565b60405180910390fd5b600073ffffffffffffffffffffffffffffffffffffffff168573ffffffffffffffffffffffffffffffffffffffff16036110cd5760006040517f01a835140000000000000000000000000000000000000000000000000000000081526004016110c49190612088565b60405180910390fd5b6110da8585858585611501565b5050505050565b600060208202602084010151905092915050565b600060208202602084010151905092915050565b611111610fe1565b73ffffffffffffffffffffffffffffffffffffffff1661112f610c16565b73ffffffffffffffffffffffffffffffffffffffff161461118e57611152610fe1565b6040517f118cdaa70000000000000000000000000000000000000000000000000000000081526004016111859190612088565b60405180910390fd5b565b6000600360009054906101000a900473ffffffffffffffffffffffffffffffffffffffff16905081600360006101000a81548173ffffffffffffffffffffffffffffffffffffffff021916908373ffffffffffffffffffffffffffffffffffffffff1602179055508173ffffffffffffffffffffffffffffffffffffffff168173ffffffffffffffffffffffffffffffffffffffff167f8be0079c531659141344cd1fd0a4f28419497f9722a3daafe3b4186f6b6457e060405160405180910390a35050565b600073ffffffffffffffffffffffffffffffffffffffff168273ffffffffffffffffffffffffffffffffffffffff16036112c85760006040517fced3e1000000000000000000000000000000000000000000000000000000000081526004016112bf9190612088565b60405180910390fd5b80600160008573ffffffffffffffffffffffffffffffffffffffff1673ffffffffffffffffffffffffffffffffffffffff16815260200190815260200160002060008473ffffffffffffffffffffffffffffffffffffffff1673ffffffffffffffffffffffffffffffffffffffff16815260200190815260200160002060006101000a81548160ff0219169083151502179055508173ffffffffffffffffffffffffffffffffffffffff168373ffffffffffffffffffffffffffffffffffffffff167f17307eab39ab6107e8899845ad3d59bd9653f200f220920489ca2b5937696c31836040516113b99190611e75565b60405180910390a3505050565b600073ffffffffffffffffffffffffffffffffffffffff168473ffffffffffffffffffffffffffffffffffffffff16036114385760006040517f57f447ce00000000000000000000000000000000000000000000000000000000815260040161142f9190612088565b60405180910390fd5b600073ffffffffffffffffffffffffffffffffffffffff168573ffffffffffffffffffffffffffffffffffffffff16036114aa5760006040517f01a835140000000000000000000000000000000000000000000000000000000081526004016114a19190612088565b60405180910390fd5b6000806114b785856114d1565b915091506114c88787848487611501565b50505050505050565b60608060405191506001825283602083015260408201905060018152826020820152604081016040529250929050565b61150d858585856115b3565b600073ffffffffffffffffffffffffffffffffffffffff168473ffffffffffffffffffffffffffffffffffffffff16146115ac57600061154b610fe1565b9050600184510361159b57600061156c6000866110f590919063ffffffff16565b905060006115846000866110f590919063ffffffff16565b905061159483898985858961195b565b50506115aa565b6115a9818787878787611b0f565b5b505b5050505050565b80518251146115fd57815181516040517f5b0599910000000000000000000000000000000000000000000000000000000081526004016115f4929190612d23565b60405180910390fd5b6000611607610fe1565b905060005b835181101561181657600061162a82866110f590919063ffffffff16565b9050600061164183866110f590919063ffffffff16565b9050600073ffffffffffffffffffffffffffffffffffffffff168873ffffffffffffffffffffffffffffffffffffffff161461176e57600080600084815260200190815260200160002060008a73ffffffffffffffffffffffffffffffffffffffff1673ffffffffffffffffffffffffffffffffffffffff1681526020019081526020016000205490508181101561171657888183856040517f03dee4c500000000000000000000000000000000000000000000000000000000815260040161170d9493929190612d7b565b60405180910390fd5b81810360008085815260200190815260200160002060008b73ffffffffffffffffffffffffffffffffffffffff1673ffffffffffffffffffffffffffffffffffffffff16815260200190815260200160002081905550505b600073ffffffffffffffffffffffffffffffffffffffff168773ffffffffffffffffffffffffffffffffffffffff1614611809578060008084815260200190815260200160002060008973ffffffffffffffffffffffffffffffffffffffff1673ffffffffffffffffffffffffffffffffffffffff16815260200190815260200160002060008282546118019190612dc0565b925050819055505b505080600101905061160c565b5060018351036118d55760006118366000856110f590919063ffffffff16565b9050600061184e6000856110f590919063ffffffff16565b90508573ffffffffffffffffffffffffffffffffffffffff168773ffffffffffffffffffffffffffffffffffffffff168473ffffffffffffffffffffffffffffffffffffffff167fc3d58168c5ae7397731d063d5bbf3d657854427343f4c083240f7aacaa2d0f6285856040516118c6929190612d23565b60405180910390a45050611954565b8373ffffffffffffffffffffffffffffffffffffffff168573ffffffffffffffffffffffffffffffffffffffff168273ffffffffffffffffffffffffffffffffffffffff167f4a39dc06d4c0dbc64b70af90fd698a233a518aa5d07e595d983b8c0526c8f7fb868660405161194b929190612df4565b60405180910390a45b5050505050565b60008473ffffffffffffffffffffffffffffffffffffffff163b1115611b07578373ffffffffffffffffffffffffffffffffffffffff1663f23a6e6187878686866040518663ffffffff1660e01b81526004016119bc959493929190612e80565b6020604051808303816000875af19250505080156119f857506040513d601f19601f820116820180604052508101906119f59190612eef565b60015b611a7c573d8060008114611a28576040519150601f19603f3d011682016040523d82523d6000602084013e611a2d565b606091505b506000815103611a7457846040517f57f447ce000000000000000000000000000000000000000000000000000000008152600401611a6b9190612088565b60405180910390fd5b805181602001fd5b63f23a6e6160e01b7bffffffffffffffffffffffffffffffffffffffffffffffffffffffff1916817bffffffffffffffffffffffffffffffffffffffffffffffffffffffff191614611b0557846040517f57f447ce000000000000000000000000000000000000000000000000000000008152600401611afc9190612088565b60405180910390fd5b505b505050505050565b60008473ffffffffffffffffffffffffffffffffffffffff163b1115611cbb578373ffffffffffffffffffffffffffffffffffffffff1663bc197c8187878686866040518663ffffffff1660e01b8152600401611b70959493929190612f1c565b6020604051808303816000875af1925050508015611bac57506040513d601f19601f82011682018060405250810190611ba99190612eef565b60015b611c30573d8060008114611bdc576040519150601f19603f3d011682016040523d82523d6000602084013e611be1565b606091505b506000815103611c2857846040517f57f447ce000000000000000000000000000000000000000000000000000000008152600401611c1f9190612088565b60405180910390fd5b805181602001fd5b63bc197c8160e01b7bffffffffffffffffffffffffffffffffffffffffffffffffffffffff1916817bffffffffffffffffffffffffffffffffffffffffffffffffffffffff191614611cb957846040517f57f447ce000000000000000000000000000000000000000000000000000000008152600401611cb09190612088565b60405180910390fd5b505b505050505050565b6000604051905090565b600080fd5b600080fd5b600073ffffffffffffffffffffffffffffffffffffffff82169050919050565b6000611d0282611cd7565b9050919050565b611d1281611cf7565b8114611d1d57600080fd5b50565b600081359050611d2f81611d09565b92915050565b6000819050919050565b611d4881611d35565b8114611d5357600080fd5b50565b600081359050611d6581611d3f565b92915050565b60008060408385031215611d8257611d81611ccd565b5b6000611d9085828601611d20565b9250506020611da185828601611d56565b9150509250929050565b611db481611d35565b82525050565b6000602082019050611dcf6000830184611dab565b92915050565b60007fffffffff0000000000000000000000000000000000000000000000000000000082169050919050565b611e0a81611dd5565b8114611e1557600080fd5b50565b600081359050611e2781611e01565b92915050565b600060208284031215611e4357611e42611ccd565b5b6000611e5184828501611e18565b91505092915050565b60008115159050919050565b611e6f81611e5a565b82525050565b6000602082019050611e8a6000830184611e66565b92915050565b600060208284031215611ea657611ea5611ccd565b5b6000611eb484828501611d56565b91505092915050565b600081519050919050565b600082825260208201905092915050565b60005b83811015611ef7578082015181840152602081019050611edc565b60008484015250505050565b6000601f19601f8301169050919050565b6000611f1f82611ebd565b611f298185611ec8565b9350611f39818560208601611ed9565b611f4281611f03565b840191505092915050565b7f4e487b7100000000000000000000000000000000000000000000000000000000600052602160045260246000fd5b60068110611f8d57611f8c611f4d565b5b50565b6000819050611f9e82611f7c565b919050565b6000611fae82611f90565b9050919050565b611fbe81611fa3565b82525050565b6000610100820190508181036000830152611fdf818b611f14565b90508181036020830152611ff3818a611f14565b90506120026040830189611dab565b61200f6060830188611dab565b61201c6080830187611fb5565b81810360a083015261202e8186611f14565b905061203d60c0830185611e66565b61204a60e0830184611dab565b9998505050505050505050565b600060208201905081810360008301526120718184611f14565b905092915050565b61208281611cf7565b82525050565b600060208201905061209d6000830184612079565b92915050565b600080fd5b600080fd5b7f4e487b7100000000000000000000000000000000000000000000000000000000600052604160045260246000fd5b6120e582611f03565b810181811067ffffffffffffffff82111715612104576121036120ad565b5b80604052505050565b6000612117611cc3565b905061212382826120dc565b919050565b600067ffffffffffffffff821115612143576121426120ad565b5b61214c82611f03565b9050602081019050919050565b82818337600083830152505050565b600061217b61217684612128565b61210d565b905082815260208101848484011115612197576121966120a8565b5b6121a2848285612159565b509392505050565b600082601f8301126121bf576121be6120a3565b5b81356121cf848260208601612168565b91505092915050565b600681106121e557600080fd5b50565b6000813590506121f7816121d8565b92915050565b600080600080600080600060e0888a03121561221c5761221b611ccd565b5b600088013567ffffffffffffffff81111561223a57612239611cd2565b5b6122468a828b016121aa565b975050602088013567ffffffffffffffff81111561226757612266611cd2565b5b6122738a828b016121aa565b96505060406122848a828b01611d56565b95505060606122958a828b01611d56565b94505060806122a68a828b016121e8565b93505060a088013567ffffffffffffffff8111156122c7576122c6611cd2565b5b6122d38a828b016121aa565b92505060c06122e48a828b01611d56565b91505092959891949750929550565b600067ffffffffffffffff82111561230e5761230d6120ad565b5b602082029050602081019050919050565b600080fd5b6000612337612332846122f3565b61210d565b9050808382526020820190506020840283018581111561235a5761235961231f565b5b835b81811015612383578061236f8882611d56565b84526020840193505060208101905061235c565b5050509392505050565b600082601f8301126123a2576123a16120a3565b5b81356123b2848260208601612324565b91505092915050565b600067ffffffffffffffff8211156123d6576123d56120ad565b5b6123df82611f03565b9050602081019050919050565b60006123ff6123fa846123bb565b61210d565b90508281526020810184848401111561241b5761241a6120a8565b5b612426848285612159565b509392505050565b600082601f830112612443576124426120a3565b5b81356124538482602086016123ec565b91505092915050565b600080600080600060a0868803121561247857612477611ccd565b5b600061248688828901611d20565b955050602061249788828901611d20565b945050604086013567ffffffffffffffff8111156124b8576124b7611cd2565b5b6124c48882890161238d565b935050606086013567ffffffffffffffff8111156124e5576124e4611cd2565b5b6124f18882890161238d565b925050608086013567ffffffffffffffff81111561251257612511611cd2565b5b61251e8882890161242e565b9150509295509295909350565b600067ffffffffffffffff821115612546576125456120ad565b5b602082029050602081019050919050565b600061256a6125658461252b565b61210d565b9050808382526020820190506020840283018581111561258d5761258c61231f565b5b835b818110156125b657806125a28882611d20565b84526020840193505060208101905061258f565b5050509392505050565b600082601f8301126125d5576125d46120a3565b5b81356125e5848260208601612557565b91505092915050565b6000806040838503121561260557612604611ccd565b5b600083013567ffffffffffffffff81111561262357612622611cd2565b5b61262f858286016125c0565b925050602083013567ffffffffffffffff8111156126505761264f611cd2565b5b61265c8582860161238d565b9150509250929050565b600081519050919050565b600082825260208201905092915050565b6000819050602082019050919050565b61269b81611d35565b82525050565b60006126ad8383612692565b60208301905092915050565b6000602082019050919050565b60006126d182612666565b6126db8185612671565b93506126e683612682565b8060005b838110156127175781516126fe88826126a1565b9750612709836126b9565b9250506001810190506126ea565b5085935050505092915050565b6000602082019050818103600083015261273e81846126c6565b905092915050565b60006020828403121561275c5761275b611ccd565b5b600061276a84828501611d20565b91505092915050565b61277c81611e5a565b811461278757600080fd5b50565b60008135905061279981612773565b92915050565b600080604083850312156127b6576127b5611ccd565b5b60006127c485828601611d20565b92505060206127d58582860161278a565b9150509250929050565b600080604083850312156127f6576127f5611ccd565b5b600061280485828601611d20565b925050602061281585828601611d20565b9150509250929050565b600080600080600060a0868803121561283b5761283a611ccd565b5b600061284988828901611d20565b955050602061285a88828901611d20565b945050604061286b88828901611d56565b935050606061287c88828901611d56565b925050608086013567ffffffffffffffff81111561289d5761289c611cd2565b5b6128a98882890161242e565b9150509295509295909350565b7f4e487b7100000000000000000000000000000000000000000000000000000000600052602260045260246000fd5b600060028204905060018216806128fd57607f821691505b6020821081036129105761290f6128b6565b5b50919050565b7f4e6f742061207665726966696572000000000000000000000000000000000000600082015250565b600061294c600e83611ec8565b915061295782612916565b602082019050919050565b6000602082019050818103600083015261297b8161293f565b9050919050565b60006040820190506129976000830185611dab565b6129a46020830184612079565b9392505050565b7f4e487b7100000000000000000000000000000000000000000000000000000000600052601160045260246000fd5b60006129e582611d35565b91507fffffffffffffffffffffffffffffffffffffffffffffffffffffffffffffffff8203612a1757612a166129ab565b5b600182019050919050565b60008190508160005260206000209050919050565b60006020601f8301049050919050565b600082821b905092915050565b600060088302612a847fffffffffffffffffffffffffffffffffffffffffffffffffffffffffffffffff82612a47565b612a8e8683612a47565b95508019841693508086168417925050509392505050565b6000819050919050565b6000612acb612ac6612ac184611d35565b612aa6565b611d35565b9050919050565b6000819050919050565b612ae583612ab0565b612af9612af182612ad2565b848454612a54565b825550505050565b600090565b612b0e612b01565b612b19818484612adc565b505050565b5b81811015612b3d57612b32600082612b06565b600181019050612b1f565b5050565b601f821115612b8257612b5381612a22565b612b5c84612a37565b81016020851015612b6b578190505b612b7f612b7785612a37565b830182612b1e565b50505b505050565b600082821c905092915050565b6000612ba560001984600802612b87565b1980831691505092915050565b6000612bbe8383612b94565b9150826002028217905092915050565b612bd782611ebd565b67ffffffffffffffff811115612bf057612bef6120ad565b5b612bfa82546128e5565b612c05828285612b41565b600060209050601f831160018114612c385760008415612c26578287015190505b612c308582612bb2565b865550612c98565b601f198416612c4686612a22565b60005b82811015612c6e57848901518255600182019150602085019450602081019050612c49565b86831015612c8b5784890151612c87601f891682612b94565b8355505b6001600288020188555050505b505050505050565b600060a082019050612cb56000830188611dab565b612cc26020830187612079565b8181036040830152612cd48186611f14565b9050612ce36060830185611dab565b612cf06080830184611dab565b9695505050505050565b6000604082019050612d0f6000830185612079565b612d1c6020830184612079565b9392505050565b6000604082019050612d386000830185611dab565b612d456020830184611dab565b9392505050565b7f4e487b7100000000000000000000000000000000000000000000000000000000600052603260045260246000fd5b6000608082019050612d906000830187612079565b612d9d6020830186611dab565b612daa6040830185611dab565b612db76060830184611dab565b95945050505050565b6000612dcb82611d35565b9150612dd683611d35565b9250828201905080821115612dee57612ded6129ab565b5b92915050565b60006040820190508181036000830152612e0e81856126c6565b90508181036020830152612e2281846126c6565b90509392505050565b600081519050919050565b600082825260208201905092915050565b6000612e5282612e2b565b612e5c8185612e36565b9350612e6c818560208601611ed9565b612e7581611f03565b840191505092915050565b600060a082019050612e956000830188612079565b612ea26020830187612079565b612eaf6040830186611dab565b612ebc6060830185611dab565b8181036080830152612ece8184612e47565b90509695505050505050565b600081519050612ee981611e01565b92915050565b600060208284031215612f0557612f04611ccd565b5b6000612f1384828501612eda565b91505092915050565b600060a082019050612f316000830188612079565b612f3e6020830187612079565b8181036040830152612f5081866126c6565b90508181036060830152612f6481856126c6565b90508181036080830152612f788184612e47565b9050969550505050505056fea26469706673582212207695fa54bf8a868067fd7a6a1c127c2271869673829d61de7c5b89db2b3a739c64736f6c634300081c0033",
  "linkReferences": {},
  "deployedLinkReferences": {}
}